:0200000280007C
:10A0000058630420D57A0900DB330A00C17A0900BD
:10A01000C17A0900C17A0900C17A0900C17A090030
:10A02000000000000000000000000000AD7B0900FF
:10A03000C17A090000000000617D0900C17A0900B1
:10A04000DD7D0900DD7D0900DD7D0900DD7D090084
:10A05000DD7D0900DD7D0900DD7D0900DD7D090074
:10A06000DD7D0900DD7D0900DD7D0900DD7D090064
:10A07000DD7D0900DD7D0900DD7D0900DD7D090054
:10A25000DD7D0900874E0A00DD7D0900DD7D0900F6
:10A26000DD7D0900DD7D0900714E0A00DD7D0900FC
:10A27000DD7D0900DD7D0900DD7D0900DD7D090052
:10A28000DD7D0900DD7D0900DD7D0900DD7D090042
:10A29000DD7D0900DD7D0900DD7D0900DD7D090032
:10A2A000DD7D0900DD7D0900DD7D0900DD7D090022
:10A2B000DD7D0900DD7D0900DD7D0900DD7D090012
:10A2C000DD7D0900DD7D0900DD7D0900DD7D090002
:10A2D000DD7D0900DD7D0900DD7D0900DD7D0900F2
:10A2E000DD7D0900DD7D0900DD7D0900DD7D0900E2
:10A2F000DD7D0900DD7D0900DD7D0900DD7D0900D2
:10A30000DD7D0900DD7D0900DD7D0900DD7D0900C1
:10A31000DD7D0900DD7D0900DD7D0900DD7D0900B1
:10A32000DD7D0900DD7D0900DD7D0900DD7D0900A1
:10A33000DD7D0900DD7D0900DD7D0900DD7D090091
:10A34000DD7D0900DD7D0900DD7D0900DD7D090081
:10A35000DD7D0900DD7D0900DD7D0900DD7D090071
:10A36000DD7D0900DD7D0900DD7D0900DD7D090061
:10A37000DD7D0900DD7D0900DD7D0900DD7D090051
:10A38000DD7D0900DD7D0900DD7D0900DD7D090041
:10A39000DD7D0900DD7D0900DD7D0900DD7D090031
:10A3A000DD7D0900DD7D0900DD7D0900DD7D090021
:10A3B000DD7D0900DD7D0900DD7D0900DD7D090011
:10A3C000DD7D0900DD7D0900DD7D0900DD7D090001
:10A3D000DD7D09009D4E0A00DD7D0900DD7D09005F
:10A3E000DD7D0900DD7D0900DD7D0900DD7D0900E1
:10A3F000DD7D0900DD7D0900DD7D0900DD7D0900D1
:10A40000DD7D0900DD7D0900DD7D0900DD7D0900C0
:10A41000DD7D0900DD7D0900DD7D0900DD7D0900B0
:10A42000DD7D0900DD7D0900DD7D0900DD7D0900A0
:10A43000DD7D0900DD7D0900DD7D0900DD7D090090
:10A44000DD7D0900DD7D0900DD7D0900DD7D090080
:10A45000DD7D0900DD7D0900DD7D0900DD7D090070
:10A46000DD7D0900DD7D0900DD7D0900DD7D090060
:10A47000DD7D0900DD7D0900DD7D0900DD7D090050
:10A48000DD7D0900DD7D0900DD7D0900DD7D090040
:10A49000DD7D0900DD7D0900DD7D0900DD7D090030
:10A4A000DD7D0900DD7D0900DD7D0900DD7D090020
:10A4B000DD7D0900DD7D0900DD7D0900DD7D090010
:08A4C000DD7D0900DD7D0900CE
:10A4C800064A074B02604FF426725B7882800822A6
:10A4D800C371002382710372704700BF19520900CB
:10A4E80028080420064A074B02604FF49C725B7AE6
:10A4F80082800822C371FF2382710372704700BFF4
:10A50800574D090028080420F8B5C41D0028054641
:10A5180024F007040CBF0020204600F051FA071E63
:10A5280002DA6FF00B00F8BD254EB1887088033150
:10A53800F3790330B27989B280B208F049FD002876
:10A54800EFDB3C4473783178002D04F1030419449F
:10A5580024F0030400FB01F10CBF0020204600F0AA
:10A56800B3FB23180DB9002BDBDB717A184679B1E0
:10A578000333002D728923F003040CBF002020460A
:10A5880000F014FC0028CCDB20440DB90028C8DBFF
:10A59800317A91B1737A83B1C41D002D24F0070478
:10A5A8000CBF0020204602F0F5FD0028B9DB0DB1F4
:10A5B8000020B8E72018B6D5B3E7002DF8D1B2E7E8
:10A5C800280804201FB572B6194BDC68ECB9BFF334
:10A5D8004F8F1849184BCA6802F4E0621343CB60E6
:10A5E800BFF34F8F00BFFDE7B2FBF6F22B465D1CB1
:10A5F800002AF9D1DBB203F110056D4405F80C2CE3
:10A608000A2233B901A8A047E1E7024600230A2637
:10A61800EDE7013BDBB203F110050DEB0506B0FBDE
:10A62800F2F502FB1500303006F80C0C2846E8E776
:10A638002808042000ED00E00400FA050A4B07B5DD
:10A64800DA886846ADF800209A885B88ADF804205F
:10A65800ADF8023001F024FC18B1FA219C20FFF774
:10A66800B1FF03B05DF804FB2808042010B50446C8
:10A6780028B307F02DFF10B94FF0FF3010BD06F0DA
:10A688005FFCB0F5FA7FF7D80E4B00221A744FF42E
:10A698008072DC601A801B225A809A8040F2032262
:10A6A800DA804FF484721A811F225A81EFF31084E2
:10A6B80072B600F0D7FB04B962B60020DEE76FF08F
:10A6C8001500DBE72808042010B5002840D1234CEA
:10A6D800237C032B39D059B1002A3CD002390529F3
:10A6E80036D8DFE801F0031227352A2D1378637076
:10A6F8000020FFF709FF0028B7BF012302236FF0EE
:10A708000B002374A8BF237410BD13791BB35379AE
:10A718000BB31188FB291ED853881B3B9BB2E02B37
:10A7280019D81A2917D913689288C4F802300C4B23
:10A738009A80DDE713786372DAE713886381D7E7D5
:10A748001388FF2B07D82372D2E74FF0FF30DBE7DF
:10A758006FF02C00D8E76FF01500D5E72808042023
:10A768002A080420F8B50D46064620B319B311F09F
:10A77800070420D1114F3B7C012B02D16FF00B0055
:10A78800F8BD032B02D14FF0FF30F9E700F0A2FB30
:10A798000028F8D02846FFF7B7FE0028EEDB0AF0BD
:10A7A8008EFD3046214601F0EFFBFFF747FF0323FC
:10A7B80020463B74E4E76FF01500E1E72808042021
:10A7C80010B5064C237C032B03D101F0F3FB01F0F9
:10A7D800B3FF08F0FFFC0020207410BD28080420F7
:10A7E80008B501F09DFB03490120BDE8084000F0D1
:10A7F800DFB800BFEDA4080008B501F0A5FB0349C8
:10A808000020BDE8084000F0D3B800BFC9A4080084
:10A81800074B4FF0FF3141F6FF72C3E900120549BB
:10A828000022C1E900221F21C3E90212704700BFBC
:10A83800000004203C0804203F280CD801380B4BAA
:10A84800C0F3421200F01F0053F8223023FA00F040
:10A8580000F001007047FF2806D04038044BC0F3D1
:10A86800421200F01F00EFE70120704700000420AB
:10A878003C080420074B0146006849681A4603C291
:10A8880040F48C2200201A6041F0107242F4FF62FA
:10A898005A607047000004200246034B0068516864
:10A8A80003C30020704700BF3C0804200246034B46
:10A8B8000068516803C30020704700BF08000420E7
:10A8C8000138064BC0F3421200F01F0003EB82036D
:10A8D8009B6823FA00F000F0010070470000042094
:10A8E8000A8870B595B2C67CC2F30E020488023697
:10A8F80002F118033444C35AA4B233442344013B3D
:10A90800B3FBF4F303FB0422438892B29342044B53
:10A918008BBF2B40AB4313439BB20B8070BD00BF72
:10A928000080FFFF4A1E062A08B50346084604D8D9
:10A938004FF4D1711520FFF745FE094A914202D91B
:10A9480040F2A311F6E711B903B1196008BD2BB1A4
:10A958001B680022C3E901211A1D1A600430F5E7BB
:10A96800FAFFFF7F10B5114B00EB41041A78638999
:10A97800B3FBF2F303FB0223013A1A44B2F5706FFA
:10A988000279807828BF00231A440B18B2FBF0F133
:10A9980000FB11215B1AB3FBF0F100FB11331344E8
:10A9A8006FEA43436FEA5343638110BD44080420B0
:10A9B800024B03EB80035960704700BF4408042032
:10A9C8002DE9F04F10F0070A85B0054604D040F293
:10A9D8006F111720FFF7F6FD524F044607F10C06DA
:10A9E800B146B04657F8043B8DF80BA03BB101A81F
:10A9F80098479DF80A30082B01D9F521E9E79DF819
:10AA08000B1041BB05B131604F4506F10406E9D191
:10AA1800002D6FD00022DFF810910227964689F8A2
:10AA2800002058F827A0013FBAF1000F55D09AF836
:10AA380004609AF802C0FF2E60D039460023481CF3
:10AA480038D19C44BCF1FF0F3FD90AB189F800E026
:10AA58004FF49A71BDE79DF80AC04B1D60465A0035
:10AA680004EB4303022838BF0220441E404223441B
:10AA7800BDF808406444CCF1000C0340013C04EAF2
:10AA88000C04B4F5803F02D340F20511A1E775B17B
:10AA98009A1A0120326091701480D0709DF80C00D1
:10AAA800107101984FEA104C1081A2F806C004FBFF
:10AAB8000134A9E758F8210028B190F804B0B3454B
:10AAC80004BF80781B180139B9E7DBB2E6458AF87C
:10AAD80004303CBF5FFA8CFE01227B1CA1D10AB175
:10AAE80089F800E0022640F6FF6A58F82670B7B9E0
:10AAF800013EFAD2601B05B0BDE8F08F0023E5E700
:10AB080007EB410309F101093846A3F80AA0FFF74A
:10AB180029FF5FFA89F1BB788B42F1D8E8E74FF05B
:10AB28000009F6E7480804204408042038B54FF621
:10AB3800FF7302460380184B03EB81031869A8B121
:10AB480084780379B3FBF4F104FB1133DBB21946C3
:10AB580000EB4105B5F90A50002D0EDB0131B1FBC0
:10AB6800F4F504FB1511C9B28B42F1D1002038BDB0
:10AB78006381BDE8384008F007BA00EB41046389F7
:10AB8800C3F30E031380C278002AF1D14FF4E571A4
:10AB98001720FFF717FD00BF440804201C4B03EBE8
:10ABA800810370B51C69054644B3030404D54FF40A
:10ABB800EC711720FFF706FD0146204608F0C7F99B
:10ABC800FF28014604D02046BDE8704008F0DCB9F3
:10ABD800A078B5FBF0F300FB1353DBB219460A1D4E
:10ABE80004EB4206B6F90260002E09DB0131B1FB25
:10ABF800F0F200FB1211C9B28B42F0D1002070BDF7
:10AC08008B4201D00023E37004EB42025580DAE75F
:10AC180044080420094B03EB8103014610B51C6965
:10AC2800204608F094F9FF28014604D02046BDE8E4
:10AC3800104008F0A9B9002010BD00BF4408042046
:10AC4800F8B5104B074603EB810301461C69204603
:10AC580008F07DF9FF28054611D0E288238953EAD8
:10AC6800024606D00146204608F08EF901463846CD
:10AC7800B04720462946FFF775FE0020F8BD05209D
:10AC8800FCE700BF4408042038B50E4B044682791F
:10AC980003EB8203186908B9052038BD8278E17989
:10ACA8009142F9D24B1CE37100EB41035D89B3F982
:10ACB8000A30002BF3DBA58008F066F9206000203D
:10ACC800EBE700BF4408042070B5044610F0030009
:10ACD8000E4603D04E211820FFF774FCFFF722FE22
:10ACE800054624B1034831460460FFF71BFE284699
:10ACF80070BD00BF600804202DE9F14FDFF870B087
:10AD08001E4607460D46DBF8003090469DF828A001
:10AD18009DF82C901BB960211820FFF753FC524670
:10AD28000921404607F09BFF4A4684B20921304674
:10AD380007F095FF81B2DBF80000214408F0DBF84A
:10AD4800386018B9286001B0BDE8F08F0444534654
:10AD5800414609222C60386807F044FF4B46092217
:10AD68003146286801B0BDE8F04F07F03BBF00BF8F
:10AD78006008042070B50E46044607F083FF0546B8
:10AD8800304607F07FFF044B2A1821461868BDE8B3
:10AD9800704008F0D5B800BF60080420024B18685E
:10ADA80008B108F09CB87047600804201F2AF8B55D
:10ADB800044624D89200134D033250B1830703D0C0
:10ADC80068210920FFF7FEFB22F003032970686061
:10ADD8002B8122F0030228230127120403FB01F030
:10ADE8006B680025120CEEB2B14200D8F8BD14B160
:10ADF80026181F705E60104401352833F3E74FF0C2
:10AE0800FF30F3E764080420154A002170B5536841
:10AE18001578C8B2854203D8BA210920FFF7D2FBBA
:10AE28001C461846013114F8286B0EB92346F0E782
:10AE38000021997001241289996103F126055C703B
:10AE48009208D96103F11E04596824F8022FAC4214
:10AE580043F8041F1144F8D100234361037070BD07
:10AE680064080420124B01224FF0FF3000215A6081
:10AE7800C3F80803C3F80015C3F804255A6040F660
:10AE8800FE72C3F808034FF48060C3F8001503F599
:10AE980060330849C3F80825C1F88800BFF34F8F0D
:10AEA800BFF36F8FC1F88801C3F80825704700BF4A
:10AEB80000A0044000E100E002680020014B1A6095
:10AEC800704700BF70080420014B1B68184700BF7B
:10AED80070080420024B1868003818BF012070471A
:10AEE800700804200A4606488F2302F8033BC3680B
:10AEF800C1F803300369536043699360704700BF2A
:10AF080074080420024B5A8C02435A845B6A18471F
:10AF180074080420014B00215B6A18477408042058
:10AF280010B5154C04F0B2FF05F094FA208DFFF728
:10AF3800F1FF237E63B12246104904F1190052F84B
:10AF48000C3BE36063685360A368936009F0EDF815
:10AF5800218DE06A02F052F9E36AB3F8AA0002F020
:10AF6800CFF8636B94F8301094F8310098470023B9
:10AF780084F8383010BD00BF74080420EDAE080016
:10AF8800034B93F838300BB1FFF7CABF704700BFC7
:10AF98007408042070B5184C0546E36CE66AE36350
:10AFA8004FF4817394F85000A4F84030337D96F83C
:10AFB800151100EB83002DB9FF2803D196F8143141
:10AFC8008B4201D004F0C4FC337D73B1606D04F092
:10AFD800C5FE616DE06B05F0C3F915B9284604F0AC
:10AFE8000BFF022384F8383070BDE06B04F0B6FE26
:10AFF80005F030FAF1E700BF7408042008B5094BE2
:10B0080093F83820022A04D040F257312720FFF75E
:10B01800D9FADA7A42F00102DA72BDE80840FFF79D
:10B028007FBF00BF7408042070B50F4DC90092009F
:10B0380000F00300AE6D01F0080102F004021B01EC
:10B04800347803F0100304F0F3040C43144304F0C1
:10B05800EC041C4304433470B5F864307370022365
:10B06800A5F85C3070BD00BF740804207FB50022CD
:10B07800012300F180010392CDE90423074A92F8E5
:10B088005020029200F19002CDE90032D0E91E234F
:10B09800022005F09FF807B05DF804FB740804204F
:10B0A800F7B5184C0646A56E0DB1636C23B940F68A
:10B0B800C4012720FFF786FAB4F8483001F00301ED
:10B0C8002F466B702B7823F003030B4307F8033BE1
:10B0D8003846B4F84820616C07F064FB0DF10202B1
:10B0E80001A9E06EE563676407F0EFFE019807F0D9
:10B0F800DAFE0122B4F848103060E06E07F082FEF4
:10B1080003B0F0BD740804202DE9F0412B4C06462D
:10B118000F4694F83830012B5FFA83F804D040F6D4
:10B128000C112720FFF74EFAE56A2B7933B100217D
:10B1380004202971FFF7E6FE85F805802B7A052B98
:10B148000AD11F490220FFF7DDFE236E1B78991EE6
:10B158004B424B4184F870301EB1BDE8F041FFF717
:10B16800DFBE002FF9D0636F304698470028F4D02F
:10B1780094F83030002BF0D1638C9A0714D594F8EA
:10B188007030002BE9D02B7DE46A13B12846FFF715
:10B198006DFF94F81521012096210AF0B8F80020D7
:10B1A800BDE8F041FFF7F6BE002BD6D194F8783011
:10B1B800002BE8D194F87930E3E700BF7408042045
:10B1C800D40804202DE9F04FAD4C91B0E56A069003
:10B1D80005F1A803089109930023CDE90D3394F8EC
:10B1E8003830022BDFB204D040F6AD112720FFF72C
:10B1F800E9F9E36B03221E785978134406F0030932
:10B20800A4F840206364069BA4F84810002B00F0C3
:10B21800228119B1E06E07F0D5FD01466A7A238DC7
:10B228000132A16643F40073D2B2238582EA9608FC
:10B2380018F0010846D12B7A23B3032B6A720AD877
:10B24800012B1FD00DA9D4F8800007F064FD90B938
:10B2580040F2D471CAE7053B012B02D940F2B37121
:10B26800C4E700F049FF10B940F2DE71BEE741467D
:10B278000820FFF747FED5E91C32013342F10002EE
:10B28800C5E91C3200216B7929721BB11020697144
:10B29800FFF738FE238D43F40063238500230793CB
:10B2A800C6F3C0082B7DCBB1B4F84830B3B105F074
:10B2B800EFF80328FBD0022806D1FFF731FE11B0C2
:10B2C800BDE8F08F069BEAE740B9AB7A03F00103CB
:10B2D800984503D1012384F83130EEE7AA7A02F0C9
:10B2E800010398456BD04FF0000AA36E002B40F085
:10B2F800C480B4F84830B3FA83F35B0903EA161341
:10B3080084F87930089B002B40F0BE80628C94F85A
:10B318008630110704D594F87020002A40F0B480D4
:10B32800012B00F2B180636F01209847002800F0DC
:10B33800AB8094F83060002E40F0A680EB7C83B19F
:10B348000123039605F180010420CDE90463FB2362
:10B35800029305F19003CDE90063D5E91C2304F0BD
:10B3680039FF95F814219621002009F0D0FFD4F870
:10B378002CB094F850309BF814209BF8141103EB70
:10B388008203FF2B03D19BF815318B4202D0FF209B
:10B3980004F0DEFA0023D4F82C808DF83130ADF8B3
:10B3A800323098F80830062B00F27E81DFE813F07F
:10B3B800C3005A015D015D017C016F016F01B4F8A2
:10B3C8004830EBB109F1FF31012919D8218D41F439
:10B3D8008051218594F88410994206D294F830302F
:10B3E80043F0100384F830307DE7A16E00293FF464
:10B3F8007AAF94F8851019B12020FFF78BFD72E71A
:10B408000132B9F1030FAA721BD009F1FF32012AE8
:10B418000CD8002B3FF467AFDDF818A0D5E91E3231
:10B42800013342F10002C5E91E325EE7002B3FF40A
:10B438005AAFD5E91E32013342F10002C5E91E3286
:10B4480051E7238D01200F4943F480532871238548
:10B45800FFF758FDEDE72B7D0BB105F033F894F8B5
:10B4680086304FF0000A0133CDF81CA084F88630EE
:10B47800238D43F48063238537E701233EE700BF2C
:10B4880074080420B808042004F000FDBAF1000F85
:10B498004CD101230893934E338D5A0606D440208D
:10B4A800FFF738FD338D43F040033385079B63B1C5
:10B4B800B4F80720B4F805301343EA8813431EBFD5
:10B4C800B4F809300133A4F80930069B002B00F0CA
:10B4D8000381B6F805300133A6F80530002386F855
:10B4E8008630814801F0FAFD0D9830B107F0DBFC99
:10B4F80000220272099901F027FA0E9B33B100224B
:10B508001A720C2209990E9801F0ECF9089B002B8D
:10B518007FF4D3AE338D1B063FF5D1AE8020FFF705
:10B52800F9FC338D43F080033385C8E649460EA8FD
:10B53800FFF7B6FDADE794F887300DF132010FA89B
:10B54800A8F80431ADF8323000F0C8FD38B10F98D2
:10B5580028B1052388F80830BDF8323015E0E36AD1
:10B5680093F85130002B77D10DF131020DF13201F2
:10B57800D4F8800007F0ADFB00286DD0BDF832305C
:10B58800002B59D1012288F80820A065A4F864305E
:10B5980003B1C31C236698F809200A9298F80A2078
:10B5A80098F808800B92B8F1020F09D0A8F10508A5
:10B5B800B8F1010F7BD81B784FF00308022B0DD090
:10B5C800D4F8800007F0DDFB002873D1B8F1030F31
:10B5D80004D000F09DFD80F00106F6B206F00103EC
:10B5E800404F87F878309BF81330002B64D0B7F8B9
:10B5F8006430002B60D033464046DDE90A12FFF77D
:10B6080013FD786D04F0AAFB0022D7E9151004F0A9
:10B61800EDFC18B9D7E9150104F040FE012387F8BD
:10B62800883087F83830BAF1000F3FF434AF494614
:10B638000EA8FFF735FD2EE79DF831201AB9032330
:10B648000280827086E7027802F00302012A08BFAE
:10B65800032788F8087098E70023ADF832300123F3
:10B6680088F80830214800238FE7B8F804310DF135
:10B6780031020DF13201D4F88000ADF8323007F014
:10B6880028FB00287FF468AF40F2C351AEE50DF106
:10B6980032010FA800F022FD08B10F9810B940F24E
:10B6A800D251A3E5062355E740F2DC519EE54FF061
:10B6B800010885E7012691E7DDE90A12334640468D
:10B6C800FFF7B2FCB86D04F049FB04F0C3FE00219B
:10B6D800B86D09F028FEA1E7B6F807300133A6F8DF
:10B6E8000730FEE674080420A0080420EE080420B1
:10B6F800064B10B593F8382002F0FF0422B91C76E7
:10B7080001F074FD204610BD0C24FBE774080420EA
:10B71800094B0A4A10B51A60FFF7EAFF20B14FF447
:10B72800B1712720FEF74EFF054C00F053FCE06492
:10B7380000F054FC606510BD44110420E0B8080016
:10B7480074080420F8B5584C054694F8386006F09B
:10B75800FF0016B909B102B123B94FF420712720AF
:10B76800FEF730FF63639DF81830616284F8853016
:10B77800626784F8300084F8860084F8310084F821
:10B7880088006084208584F8780084F8790084F83B
:10B798007000A0652066A4F86400E0636064A4F803
:10B7A8004800E56204F000F904F054FE95F91C0124
:10B7B80004F054F9D5F8D060D5F8C80004F054F96D
:10B7C800304604F0BDFA95F8240004F057F908F063
:10B7D800EAFF95F8152100F17101012004F0CCF978
:10B7E800324B186804F0B2FAD5F8BC30C4F880308F
:10B7F800D5F8C030E366AB7B233B072B52D9EB7BF4
:10B80800233B072B4ED9B5F8E630B5F8EC0095F890
:10B818001411984228BF184608F0F6F995F8E83050
:10B82800834228BF034698B295F8E430984200D383
:10B83800C3B295F8151105F1DC0084F8873008F0DB
:10B84800A1FC2F7D95F81511B5F8F06008F0DCF92A
:10B858000FB9043080B2864228BF0646F3B284F896
:10B86800843084F850302B7D13B12846FFF7FEFB57
:10B878000120FFF78FFBE36AD3F8C00104F08AFACE
:10B88800002323606360A360EB886380B5F8AA3067
:10B89800238095F824302371D5F818310BB1012293
:10B8A8001A60F8BD1B23C4E774080420441104205F
:10B8B800014B93F88800704774080420024B93F8F2
:10B8C8002900C0F3C000704774080420014B93F8A6
:10B8D800860070477408042005B00800CDB1080040
:10B8E80011B1080089AF080010B501210020FFF749
:10B8F80091F9044670B90121FFF750F9044620B9BF
:10B9080040F225313920FEF75DFE034B93F91810FC
:10B9180009F0EFF9204610BD00090420014BD88832
:10B92800704700BF0009042008B508F0FFF800F0D0
:10B9380031FD00F073FB08F0D0FB01F03DFC03F093
:10B9480003FD0022074B4FF01B1107481A60074BF5
:10B95800C3E901014FF4A4711A801A82D960DA741C
:10B9680008BD00BF4811042003021B000009042081
:10B97800034B41F64C525A611B229A74FFF7D4BF0D
:10B9880000090420F7B5274D00F1A80704466B69A4
:10B99800C0F8DC30244BC0F8C430384609F03DF814
:10B9A800064600F02BFB8306A97C53BF1B23EB88BC
:10B9B8002A891A46A4F806311C4BA4F808211B68EA
:10B9C80084F8E410A4F8E66023B194F91C11B4F8E3
:10B9D800AA0098471649384607F093FE0123EA88DB
:10B9E80004F1BC006979A4F8DA3003322B8901919B
:10B9F80092B22979033300919BB204F1C001FFF799
:10BA08007BF9D4F8BC3023B940F2E2413920FEF783
:10BA1800D9FDD4F8C03013B940F2E341F6E703B0DA
:10BA2800F0BD00BF0009042000093D004C110420AE
:10BA38000E090420024B1B6803B118470C207047FD
:10BA480048110420034BDA8802801B798370002098
:10BA5800704700BF0009042037B5837805461A2BC4
:10BA680008D8042B04D9144A22FA03F3DB0705D4B7
:10BA780012241AE0292B01D03B2BF9D12888B0F5E4
:10BA8800706FF5D201A908F0E3F888B9019B93F823
:10BA9800202102F0FF046AB9AA7883F82121FF2245
:10BAA80083F8202101A807F0DBFB204603B030BD56
:10BAB8000224FAE70C24F8E72000380438B50278A5
:10BAC800447802F0010302F0020254EA030101D1B2
:10BAD800112038BDBAB98578002DF9D0002B18BFD0
:10BAE800002400E01D46204607F098FB0028EFD010
:10BAF800284607F093FB0028EAD0054B00209C73EA
:10BB0800DD731882E5E7002BECD000242546EAE730
:10BB18000009042013B5008801A908F0B2F804460A
:10BB280020B9019890F832311BB13A24204602B06E
:10BB380010BD90F85C3003F0FF04002BF5D190F8AD
:10BB480053309B0706D1FF2380F8323101A807F054
:10BB580087FBEBE70249543008F0E7FAE6E700BF55
:10BB680005470900F7B5077805460C46EF2F0FD8AB
:10BB780090F901204378002A0ADB8278900707D1E0
:10BB880013F010001DD1990603F0030202D51AB173
:10BB9800122442E0032AFBD01E07F9D42979EA7857
:10BBA800EE7942EA0122697942EA0142A97941EA39
:10BBB80006212E7A41EA06418A42E9D81F2A0FD87F
:10BBC800E6E713F0600FE3D103F00702052A05D07A
:10BBD80003F00F010D22CA40D107D9D51A07DDD5C8
:10BBE8006A7A013A062AD3D8AA7A032AD0D813F057
:10BBF800040102D1023A012A03D8EA7A012AC7D8F5
:10BC080011B9AA7C032AC3D82A7D48B1012ABFD119
:10BC18002A7E012ABCD830B91124204603B0F0BDD1
:10BC2800022AF5D1B4E7DB0712D46B782A7D03F03A
:10BC38001803082B11D1022AEED101213846FEF74C
:10BC4800E9FF064678B109F008F8B8B10C24E4E732
:10BC580000F094F90028E8D1DEE7022AEDD02B7F26
:10BC6800002BEAD0D8E701213846FEF797FF0646B1
:10BC780040B3154B93F9181009F03BF8304609F01A
:10BC880028F929462070E874304609F078F8EB7EE8
:10BC98000446002BC1D00028BFD10246B16A6846CD
:10BCA80007F0ADF92246B06A012107F0F3F9B16A4D
:10BCB8006846042207F0A3F922462146B06A07F035
:10BCC800E9F9AAE70724A8E70009042030B50279B2
:10BCD8008BB00346042A4FD84088B0F5804F4BD824
:10BCE800264900248D5C1144ADF800404A798DF84E
:10BCF800084042F010028DF8244042EA45028D7A4D
:10BD0800C97B42EA850242EAC102694602F01F0283
:10BD18008DF80020BDF80020ADF809201A888DF8AC
:10BD28000E00000A8DF80B20120A8DF80D408DF8D0
:10BD38000C208DF80F008DF810405A7BD3F80700BF
:10BD48008DF811205A79059002A88DF812209A7959
:10BD58008DF81320B3F80B209B7BADF818208DF8D5
:10BD68001A307F238DF81B304FF00113CDE90734CB
:10BD7800FFF7F8FE0BB030BD1220FBE7E86D0A00B4
:10BD880073B50646FFF7B0FD044609F0ADF8337801
:10BD98000546012B5FD1204608F0DEFF00287AD047
:10BDA800204609F0A1F818B115B9122002B070BDEB
:10BDB800204608F052FF08B10C20F7E7204608F0AB
:10BDC80089FF06460028F7D1204602F0C7FA002866
:10BDD800EBD0ED0142F2107331462046ADB25D431F
:10BDE80009F06EF8204609F077F8014658B92A4656
:10BDF800204601F00BFD08B90020D7E741F698214D
:10BE08003920FEF7DFFB31460DF10600FEF78EFE06
:10BE1800064608B90D20C9E7BDF8061007F040FF2F
:10BE28003146204609F064F83046FFF7ABFD2A4654
:10BE38003146204601F0EAFC024610B141F6B42131
:10BE4800DEE7164BDB69002BD6D006F5917106F1BB
:10BE5800A8009847D0E7002BA7D1204608F07CFF20
:10BE6800C8B1204608F0F9FE0028C5D0204608F0E1
:10BE7800A4FD0546204608F0A3FD014600289BD1F5
:10BE8800002DB9D0B5F8AA00FEF7DAFE0028B3D025
:10BE980041F6D621B4E7422088E700BF0009042014
:10BEA8000278034672B1427862B142881A2A09D9E7
:10BEB80082881A2A06D90068034A506000209B88A5
:10BEC800138170471220704700090420026800207F
:10BED800014B5A61704700BF000904200378A3F1A1
:10BEE8000A02112A9BBF024A00201220937470474D
:10BEF8000009042008B50122084B1A7002F01EFA46
:10BF080009F09FF907F010FEFFF702FC002007F088
:10BF180043F8BDE8084000F01FBC00BF200904201A
:10BF280010B5064C0649201D07F09AFB04F10800DD
:10BF38000449BDE8104007F093BB00BF2009042066
:10BF4800480004205000042010B5084C0849201D62
:10BF580007F086FB04F10800064907F081FB04F1AD
:10BF68000C000549BDE8104007F07ABB2009042001
:10BF7800580004206000042068000420014B187851
:10BF8800704700BF2009042010B5064C00F0C0FB24
:10BF9800606807F05DFBFFF7EBFC00F03FFD012355
:10BFA800237410BD20090420014B187C704700BF82
:10BFB8002009042010B5064CA06807F049FBE0688A
:10BFC80007F046FBFFF7B0FC0023237410BD00BF49
:10BFD80020090420004870473109042000487047B0
:10BFE800330A0420C208044900F0070001238340F3
:10BFF800885C03438B54704710000420014BD3E93D
:10C008000001704710000420034B1868C0F300209B
:10C01800400040F0010070471000042008B504F00B
:10C028008FFF0023074A32F82310814205D302EB21
:10C0380083029378044A137008BD01330C2BF2D1A4
:10C048000023F7E7FC6D0A00350B0420006808B5EB
:10C05800B0F8AA3080F86411A0F8653190F814316E
:10C06800012B06D0022B04D04FF43F710620FEF7B7
:10C07800A9FA80F8673190F81531012B01D0022B0D
:10C08800F2D180F8683100F25B100249BDE808403F
:10C0980008F04BB8F5360900024B002283F822203D
:10C0A8009A847047360B0420044B93F82220012A07
:10C0B8001ABF036001200020704700BF360B042020
:10C0C800054B024693F8221001291BBF01209A84D0
:10C0D800002083F822007047360B0420054B0246E7
:10C0E80093F8220020B1136009B19B8C0B800120CA
:10C0F800704700BF360B0420044B002293F822003F
:10C108009A8410B1012083F822207047360B04204E
:10C11800034B93F82200B0FA80F04009704700BF43
:10C12800360B042050B90A4A0120134603F8010BC4
:10C138000868C2F801008A889A807047012805D1EA
:10C14800034B0A68D8719A608A889A81704700BF41
:10C158005C0B042050B90B4B187888B1D3F8012038
:10C16800B3F805300A6001208B807047012806D19A
:10C17800044BD87920B19A689B890A60F3E70020BC
:10C18800704700BF5C0B042010B9044B1878704747
:10C19800012806BF014BD879002070475C0B0420AA
:10C1A800F7B58A8800238DF80600ADF804200868E2
:10C1B8000B4A8DF807300146147802F5A872019DE4
:10C1C800D8B2844201D8082007E052F8087F01332A
:10C1D8005668AE4208BF8F42F2D103B0F0BD00BF2F
:10C1E800700B0420084B0146002230B55C7803F23E
:10C1F8000113D0B2844201D8082004E013F8015F8B
:10C2080001328D42F5D130BD700B0420F0B5254DBB
:10C2180089B095F8984105F299116846224606F0CA
:10C22800C1FA2146684607F0A0FC0446B8B300EB03
:10C23800400102A8C9B2FEF747FE631E95F8A16146
:10C248000124DBB295F8981105E0721CB2FBF1F0FD
:10C2580001FB1022D6B206F120020DEB020010F805
:10C26800202C002AF1D103EB430100F8204C06EB07
:10C27800460220312A44694411F8187C82F8A271D8
:10C2880011F8177C11F8161C82F8A37182F8A41112
:10C29800013BAA19DBB282F89941FF2BD2D109B030
:10C2A800F0BD00BF700B042070B5064688B00C4680
:10C2B800002A4ED0294A92F8A131D01890F8991145
:10C2C80019B9FF212820FEF77DF903EB430101335B
:10C2D800114491F8A251E57091F8A35191F8A41175
:10C2E80025716171002180F8991192F89811B3FBBA
:10C2F800F1F001FB103382F8A13192F8C23123B971
:10C30800174902F5DD7007F00DFF65790D22002150
:10C31800684605F03F0545F04005657109F0F5FAF6
:10C32800E37804AA69468DF80F30304623798DF8F2
:10C338000D508DF80E30042309F051FA9DF81F3086
:10C3480023709DF81E3063709DF81D30A37008B0EF
:10C3580070BD03216018FEF7B7FDD6E7700B042007
:10C3680015C20800044B5A78824286BF1B1893F8FE
:10C378004A010020704700BF700B0420044B5A7814
:10C38800824286BF1B1893F842010020704700BF05
:10C39800700B0420064B00224FF461711A8083F859
:10C3A800C32183F8C421A3F8C61183F8C2217047BA
:10C3B800700B0420014BB3F8C6017047700B0420C2
:10C3C8000A4B30B55C7884420ED9184490F80201C3
:10C3D8002B3003EBC004A5790D7053F830001060C2
:10C3E8000120A388938030BD0020FCE7700B042057
:10C3F8000246074810B590F8C34124B1417821B1ED
:10C40800023002F0C3FF204610BD0C46FBE700BF18
:10C41800700B04202DE9F74F2F4C9A468046894629
:10C428006378834256D9231893F8425185F0010561
:10C43800F9B193F84A31E3B945F002070135BAF189
:10C44800000F18D1FA070AD5062104EB0810524646
:10C4580001FB0841823001F58571FFF725FFBB0715
:10C4680034D504EB0810524649460230FFF71CFF4A
:10C478002CE02F46E3E794F8A1614FF0010B002D63
:10C48800E0D0A31993F89911019399B90092DAB100
:10C4980000F094FA019B06EB4601009A4FEA102C33
:10C4A80083F899B1214481F8A201000C81F8A3C155
:10C4B80081F8A401013694F89831013DB6FBF3F1F7
:10C4C80003FB1166F6B2DAE747F00407384603B013
:10C4D800BDE8F08F0027F9E7700B0420074B5A7866
:10C4E800824209D91A1892F842212AB9062202FB77
:10C4F800003000F58570704700207047700B0420ED
:10C50800064B5A78824281BF1B1893F83A01B0FA59
:10C5180080F0400998BF0020704700BF700B0420CE
:10C52800034B80F874101B680BB14088184770479C
:10C53800501104200B2808B504D940F229112920EC
:10C54800FEF740F8014B33F8100008BD2C6E0A00C6
:10C55800036830B50024D3F8C40042F21075A3F87C
:10C568004040B3F844404443B4FBF1F4A3F84440DA
:10C578004C1E05FB0242B2FBF1F2A3F84220094A25
:10C58800B2FBF1F20132A3F848209A8F05FB02446E
:10C598005A6B5043B4FBF1F4B0FBF1F09C63586361
:10C5A80030BD00BF005A62020346084671B13F2BF6
:10C5B8000BD8074AD35C03F07F02914205D08CBFA9
:10C5C8000120002000EAD31070470120704700BF07
:10C5D800446E0A00FF230B7002234B7083238B7079
:10C5E800014B1B78CB7070473C0D04202DE9F84FA8
:10C5F800D0F804800C46D8F81860304606F041FCA4
:10C60800054620B94FF4AA711020FDF7DBFF01465B
:10C61800304606F044FCB5F800B082461FFA8BF7A6
:10C6280017B94FF4AC71EFE7224B00F103091B680F
:10C63800D3B998F8023098F803202370637802F091
:10C648000F02A4F802B023F00F03134323F0C00332
:10C6580063709AF8003003F00303012B0FD0022B0C
:10C668000DD04FF4BB71CFE73A464946B8F80200FF
:10C67800984705460028DCD12846BDE8F88F62783F
:10C68800304663F30512627006F00FFC054610B9D8
:10C698004FF4C071B8E7FB2F02D940F28F11B3E70E
:10C6A8003A464946201D06F07DF8304606F058FB0C
:10C6B800E2E700BF5411042038B5134C10220021C2
:10C6C800201D09F022F90125257404F10803102220
:10C6D800002104F11400C4E9013309F016F984F8C3
:10C6E800205004F11803094AC4E9053300236362A2
:10C6F800A36284F82C30C4F82D30C4F8313084F8A3
:10C7080035301360A36338BD3C0D04205411042058
:10C7180010B5084C2378FF2B04D040F29911102053
:10C72800FDF750FF05F0AAFF2070BDE81040FFF7A5
:10C73800C3BF00BF1D00042010B5034C207805F0CE
:10C74800B7FFFF23237010BD1D000420014B18788C
:10C7580005F0BEBF1D000420014B024A1A60704755
:10C7680058110420F5C508002DE9F341DFF8688168
:10C77800054608F11407D8F80830D8F81840227A86
:10C78800012A22D1D8F8382052B1137A1BB9BF2117
:10C798001020FDF717FFD8F83840C4B9002083E00F
:10C7A8001A7A012AFAD01C464C4AEFF3108172B665
:10C7B80050680068506001B962B6A34208BFC8F863
:10C7C8003840237A1BB9EE21E2E73A46EDE7267AAC
:10C7D800F6B205232372731E0B2B6ED8DFE803F025
:10C7E8006A062235676D3E6D6D6D6D5B636813B9C2
:10C7F8004FF40371CCE72046294698470420EFF30D
:10C80800108272B6237A052BD9B24FF0000359D1A2
:10C818002372D8F83810A14201D1C8F83830B2BB19
:10C8280062B634E0636813B940F21521B0E72946CF
:10C83800204698470346ADF80400C0B2C3F3072367
:10C84800012B2FD0022BDAD11AE0636813B940F21A
:10C858001D219DE7204698470020D0E763680BB963
:10C86800FE2195E786222A7001225988AA706A71EA
:10C8780000225869A5F80310AA7106F071FA04207D
:10C88800D8F83830A34202D10023C8F8383000283D
:10C898003FF471AF08E0124B294620461B689847C1
:10C8A800034668B9267298B102B0BDE8F0814FF42A
:10C8B80015716DE740F257216AE740F25A2167E7A0
:10C8C8000220DDE711B940F27B2161E71846A6E7AF
:10C8D800002B7FF450AF61E73C0D0420400D04208D
:10C8E80058110420134610B5027A22B140F20231E1
:10C8F8001020FDF767FE0A4601460248BDE81040D1
:10C9080007F0EDBB400D0420044890F82C301BB90B
:10C918000349243007F000BC704700BF3C0D0420D9
:10C92800D74009000346064890F83C203AB190F8F1
:10C93800352022B9034900F82D3B07F0EDBB7047BD
:10C948003C0D0420DDC508000A4610B5037A23B162
:10C9580040F20A311020FDF735FE01460723024850
:10C96800BDE8104007F0BBBB500D04201346027A07
:10C978000AB1037270470A460146014807F0AFBB87
:10C98800400D04201B234FF01B1283840384826113
:10C998008382C260038539B94FF4A473034AC38400
:10C9A8004384C261C3820261704700BF48014801E5
:10C9B800014907F0BABB00BF39410900094AD2E969
:10C9C8000003434083EAB01181EA43214FEAF3436D
:10C9D80011605360044B58434FEAF06000EB80004D
:10C9E800704700BF7C0D0420BB79379E094AD2E905
:10C9F8000003434083EAB01181EA43214FEAF3433D
:10CA080011605360044B58434FEAF06000EB80001C
:10CA1800704700BF20000420BB79379E10B50A4C30
:10CA280008210948FEF750FAD4E900321343F7D039
:10CA3800064CFFF7DBFF2060FFF7D8FF2368606034
:10CA48001843F6D010BD00BF200004207C0D042040
:10CA5800174B184A9A60184A5A60184A1A60184AB6
:10CA68009A62184ADA62184ADA60184A9A61184AC9
:10CA78001A63184A1A62184ADA64184A9A64184AF1
:10CA88005A62184B184A9A60184A5A62184ADA6267
:10CA9800184A1A61184A5A61184A9A61184A1A6358
:10CAA800184A9A64184ADA64184A9A63704700BFA9
:10CAB8005C1104202144090047440900AD440900E1
:10CAC80069450900B3450900F1CD0800C5450900CD
:10CAD80059D00800EDCE080089460900A146090092
:10CAE80039CF08005C120420374409005D4609006C
:10CAF800E345090093450900034609007DCE080077
:10CB080027470900CF460900C146090047460900E2
:10CB1800054B064A9A65064A1A66064B064A9A65FE
:10CB2800064ADA65704700BF5C110420E138090045
:10CB3800953909005C12042031380900153B0900B9
:10CB480037B5044601A80D46FFF7AEFA20B94FF4F1
:10CB5800AA615120FDF736FD00212222019808F034
:10CB6800D4FE019B194601F8035F023D232D00F214
:10CB78008980DFE805F02587128A8A25872B878A2E
:10CB8800313D418787458A8A4E4E65658787878705
:10CB9800878787878787876C778021680D20D1F8FA
:10CBA800CE215A60D1F8D2219A602268D2F8942016
:10CBB800DA60FFF785FA002869D140F25751C8E7D3
:10CBC800226892F8A02002201A71F2E7204600F0AD
:10CBD80005FA0028EDD13DE0112206201A715922EC
:10CBE8005A7100229A713922DA7130221A72E0E7FA
:10CBF800226892F89A20E6E7084600F0DDF9E8E7AF
:10CC0800226892F89B10197192F89A2003205A71A1
:10CC1800CFE722680920B2F800111971090A597181
:10CC2800B2F8A2109971090AD971B2F8FC101972F8
:10CC3800090A5972B2F8A0209A72120ADA72B8E791
:10CC4800226892F82E11197192F82F21DEE7114B04
:10CC58001B6813B940F249517BE7232022469847C5
:10CC68000420A6E70B4B1B68002BF3D02246242098
:10CC7800984705209DE7074B1B68002BEAD0224602
:10CC88002520F5E740F2445163E7012091E703B01E
:10CC980030BD00BF5C1304203F289ABF024B53F8F5
:10CCA80020000020704700BF5C1104203F289ABF75
:10CCB800024B53F820000020704700BF5C1204208C
:10CCC800F7B5056804464FF6FF77D5F8BC600DF157
:10CCD80002010DF101023046ADF8027005F0F9FFCE
:10CCE80001A9304606F017F848B1019806F0DBF8BC
:10CCF8002168A83100220272FFF726FEE7E70449FF
:10CD080005F1280003B0BDE8F04007F008BA00BFFD
:10CD1800B5430900F0B5044685B00D46FF2600F876
:10CD2800A56C10F8A63CF3B1174F3B781BB16221F4
:10CD38001F20FDF747FC0C21381DFEF7C5F83E7093
:10CD4800002304F8A53C8A232A4602F8033BD4F8BA
:10CD58000930C5F80330D4F80D305360D4F81130D9
:10CD6800936005B0F0BD01A80C21FEF7ADF8A4F55D
:10CD7800F473039A1A6001AB03CB44F8AE0C44F881
:10CD8800AA1C04F8A66CDBE7840D042010B5054C3A
:10CD980023782BB90C21201DFEF796F8FF2323706A
:10CDA80010BD00BF840D0420024690F8D631BBB9EF
:10CDB80090F8D73103F0FF010BB100207047094B01
:10CDC80018780028F9D01970D9680433C2F894107B
:10CDD80003CBC2F8CE01C2F8D211FF2382F8D631B4
:10CDE80001207047840D0420026838B5D37B0446BF
:10CDF8000D463BB1122B05D0103B0F2B8CBF0120E9
:10CE0800082038BD92F8523013B9204607F094FA3A
:10CE1800D5F80B302268C2F8C631D5F80F30C2F801
:10CE2800CA312368D5F81320C3F89020B3F8AA2094
:10CE3800A3F88522D5F80120C3F88722D5F8052064
:10CE4800C3F88B222368B5F809200025A3F88F22A0
:10CE5800236883F89E5183F8D6512068044900F569
:10CE68001F7007F059F9236815222846DA73C8E7B6
:10CE78001DCD0800036810B5DA7B04461F2A04D0CC
:10CE880040F29D211F20FDF79DFB002193F85220C1
:10CE9800B3F8AA0083F8511082B1C3F8A91183F836
:10CEA8005210A3F8AD11A3F8AA0103F5D0700B49ED
:10CEB80007F032F923680022DA7310BD0121A3F8C4
:10CEC800990183F8982103F28F1083F89B1183F856
:10CED8009F210349A3F89C21EAE700BF51450900B7
:10CEE8003945090038B505682B6813F0010419D1D4
:10CEF800D1F801200C4BD1F8051013400B4AC5F8A6
:10CF08006230C3F307630A4043F00803C5F866209C
:10CF180085F8653007F010FA2B68204643F00103C6
:10CF28002B6038BD0120FCE72FC904F76FDB0080B8
:10CF3800006810B5837B042B28D1D1F801304A1C36
:10CF4800D1F80540C0F86230C3F30763C0F8664003
:10CF580043F0080380F86530002380F84A30837373
:10CF680090F8713103F0FF040BB1002010BDB0F848
:10CF7800AA3000F2691044724381D1F801300449A3
:10CF8800C3605368036107F0C7F8EEE70120EDE7D7
:10CF98001D460900006890F871314BB9B0F8AA3005
:10CFA80000F26910034943811A23437207F0B4B8A9
:10CFB800704700BF1D46090010B50446FFF71EF86C
:10CFC800044A054B024009200B40C4F80120C4F86C
:10CFD800053010BD2FC904F76FDB008037B50C464C
:10CFE8000568FFF70BF80A4B0A4A03400A4095F810
:10CFF800621000930B4001928DF800306B4603CB12
:10D00800C4F801000920C4F8051003B030BD00BF02
:10D018002FC904F76FDB008038B5DB04154604D54B
:10D02800037D13B10023436338BD446B013444636B
:10D0380007F054FB836B9C42F6D3002303494363F8
:10D048002846BDE8384007F070B800BF7D460900A3
:10D0580038B504680546A37B012B02D023689807DE
:10D0680038D494F853309A0713D44A78D80784F8F8
:10D078005D204A88A4F85E208A88A4F8602043F0DE
:10D08800020284F853200FD5134904F1540007F025
:10D098004CF894F85330D90711D423689A0708D567
:10D0A80058214020FDF78EFA94F83231002BEBD14D
:10D0B800EFE743F002032846236007F03DF9A37B1E
:10D0C800012B4FF0000301D0002038BDA37384F872
:10D0D8004A30F9E70120F8E70547090070B5056807
:10D0E800044602F00FF9054B0146E8721B681BB1B4
:10D0F8002046BDE87040184770BD00BF6413042087
:10D10800024B1B6803B11847704700BF6013042027
:10D11800F0B51F4D00242B7814709BB1013B6D684E
:10D12800DBB21E1B012E0FDC05EBC40655F834706C
:10D1380076688E4208BF874227D0B84271EB060650
:10D1480012D214700020F0BD1E197710C6F34706DE
:10D1580055F837C005EBC70E8445DEF804708F41DB
:10D168002CBF33463446DCE705EBC30455F833508F
:10D1780064688C4208BF854206D0A84271EB04045B
:10D1880028BF01331370DDE71C4601201470DAE76D
:10D19800A40D042010F0070208B503D0632148202D
:10D1A800FDF710FA18B1034B197258601A70C800CD
:10D1B80008BD00BFA40D0420014B00221A7070475F
:10D1C800A40D0420FF23084A0B700D234B70822303
:10D1D8008B701368C1F803305368C1F8073093683F
:10D1E800C1F80B30704700BFBA0D04201622002189
:10D1F800014808F08ABB00BFBA0D04200B4B5A7DCA
:10D2080092B14A0610D5B0F8AA2009491A80D0F878
:10D2180050225A60D0F854229A60C28803F10C0058
:10D228005A800222FFF7A2BB704700BFBA0D042044
:10D23800CDD10800094B53F8203003F5224370B5CF
:10D24800B13316464FF47A720C46B3FBF2F5344408
:10D2580002F0BCFE2C44204470BD00BF4C6F0A0095
:10D268002DE9F04F8BB0044698460F46039290F88C
:10D27800159106F039FA824694F81F01FFF75AF91A
:10D28800824407F090FAE37B00F148061FFA8AFA15
:10D298000293039B002B4AD1637B032B47D1029B4C
:10D2A8000C2B32D1B4F86C32BB422ED1D4F8F03109
:10D2B8002046B4F8C421C4F8E031D4F8C430C4F826
:10D2C800E431B4F862321344C4F8E83101F0D2FF13
:10D2D800D4F8742241F64B5194F81D31C4F8C42097
:10D2E8008A428CBF002303F00103D4F87012D4F8EB
:10D2F8007822C4F8D41084F81E310223B4F86E12D0
:10D30800C4F8CC20A4F8D8106373E37BA17B282B46
:10D3180001D028290BD1B4F86C32FB1A1A0406D4B0
:10D32800A1F1280320465942594101F065FBB4F8A0
:10D33800605204F50C73B4F806E07D1B94F815B13F
:10D34800A7EB0E0E04932DB20FFA8EFE002D0FDA06
:10D358007546D4E99223C4E996230122637B032B03
:10D3680000F26481DFE813F0060006015A00290183
:10D378004246F3E70121002006F055FC8146D4F827
:10D38800D4005146484403F08FFD5146C4F8EC01DF
:10D39800D4F8C40003F088FD07A9C4F8F00108A870
:10D3A80002F084FD079B0093DDE90823D4E9960188
:10D3B80008F02EF8834604F1A80007F00CFAD4F818
:10D3C800D420D4F8643294F81501D51802F006FE7A
:10D3D800D4F8EC1100F52240203D4FF47A73B130B7
:10D3E80032466D1A3031AD1BB0FBF3F04D44B4F842
:10D3F800D830A5EB0B0503EB41012D1A94F8150164
:10D40800FFF718FFD4F86432C4F8F401EB1AB92B0B
:10D418005DD840F2C7413020FDF7D4F8D4F8D430B5
:10D428005146D4F8E401184403F03EFD5146C4F8CF
:10D43800EC01D4F8C40003F037FDC4F8F00104F19E
:10D44800A80007F0C8F9D4F8D430D4F8E4511D4442
:10D45800B4F8C431002B40F08980B8F1000F00F017
:10D46800858094F8150102F0B9FDD4F8EC11D4F8D0
:10D47800503200F522406D1A94F81521B130203D44
:10D488001D44854B53F822204FF47A7302F2E73299
:10D49800D4E9929AB2FBF3F2A5EB0905B0FBF3F0DD
:10D4A8001544AD1B2D1AD4F8E821D4F8E03194F8CE
:10D4B800150102FB0313B4F8D8103246303301EBE0
:10D4C8004301FFF7B7FE0123C4F8F4016373D4F8EE
:10D4D800C430D4F8F021723B9B1A9E1B002386426D
:10D4E80084F83032D4E9963228BF064604F1DC00CD
:10D4F8005B19C4F8C06142F10002C4E9903206F039
:10D508003FFE04233044A4F8607284F83932C4F82A
:10D518003402D4E99023C4E99623B4F8B031DB1B74
:10D528001BB2002BD4BF00220122520084F83822FB
:10D53800029A0C2A7DD0B8F1000F7DD1637B002BB5
:10D5480000F09680D4F8C41004F50C70D4F8F031CB
:10D55800C91A06F02BFB80B2002800F08980149BC2
:10D5680003B1188001200BB0BDE8F08FD4F8EC119E
:10D578006D1A98E7D4F8F001D4F8C430B4F8C4C1EF
:10D588001B1AD4F8E811F444D4F8E0215D43D4F828
:10D59800EC31ACEB010C30330CF1FF3C02FB0133F6
:10D5A800B4F8D810324600FB0C3301EB430158465F
:10D5B800FFF740FEC4F8F40189E7D4F8F0A1D4F8E5
:10D5C800C430B4F8C4C1A3EB0A035D4332B3BCF161
:10D5D800000F23D1D4E99423D4E99201904271EB4E
:10D5E800030302D340F20E5115E72B4B203A53F8B0
:10D5F80029304FF47A79D4E99201CDE9040103F294
:10D60800E73103F522430498B133121AB1FBF9F15B
:10D61800B3FBF9F30A44D21A921B15440CEB0E0122
:10D6280032460AFB01F130314900C0E740F2265189
:10D63800F1E6B8F1000F1BD0B4F8D80110B3B4F874
:10D64800DA1194F8DC214D1CA4F8DA1101FB02224E
:10D6580090420DDD002B0BDD0023A4F8DA5184F88D
:10D668003832FFF7ABF900F00700013084F8DC012D
:10D6780004F50C7104F5027004F0BEFB20B940F209
:10D688007651C8E60146DCE7039B83F0010384F882
:10D698000032002067E700BF4C6F0A002DE9F8430D
:10D6A8000E46044618B9D3213020FCF78BFF052914
:10D6B80000F2A780DFE801F00376413DA52E07F0D0
:10D6C80049FFC4E94601204600F06CFFD4F80C017C
:10D6D800A43807F097FE204607F006FC054600BB75
:10D6E8000146204607F03DFB00F1AE06D4F80C01D8
:10D6F800B04209D2301A0321192838BF192007F07F
:10D70800FBFE60B107F080FEC4F80C61204607F00C
:10D71800FDFB45B12046BDE8F84307F0F8BB0125FD
:10D72800F2E70025F2E7D4E94623C4E94023BDE83F
:10D73800F883BDE8F84302F0C5BB07F01DFB0423DE
:10D748008146884684F8113107F05AFE07220F46B1
:10D75800A9FB023102FB0811D4E940525B1941EBE5
:10D768000205D4F8E8203AB159EA080204D09842F0
:10D7780077EB050228BF012684F81061D4E9482612
:10D78800121A66EB070694F8301139B9012A76F1B6
:10D7980000010BDA204600F00DFF03E0012A76F1C4
:10D7A8000006F7DB002384F82831C0E7984277EBBE
:10D7B80005010FD259EA08080CD01B1A65EB0701BE
:10D7C8009A4276EB010005DB012B71F10000A4BF42
:10D7D8001A460E460C49012304F1C000914284F810
:10D7E80029314FF0000384F80831B341B8BF0A4625
:10D7F80004F5847104F060FB002898D140F2B2610E
:10D8080052E7EF2150E700BF0040420F2DE9F843EF
:10D8180004460E46154690F8283103F0FF07002B02
:10D8280040F0948000F1C00839467822404608F05C
:10D838006CF822464649404607F0FEFEC4F8E86008
:10D84800FF2384F8283166B1FFF7D0F800F007000D
:10D8580032464049013086F8DC0106F5027007F0CF
:10D86800EBFE40F202434FF00009A4F8103184F8AF
:10D87800089103F06FFB00F14906204607F034FBDE
:10D888000146B6B2C0B305F02FFF00F128012846C3
:10D8980089B203F009FB2844AE3DC4F80C0107F037
:10D8A800AFFD3018A4F81E9041F10001C4E946010B
:10D8B800012084F8EC0007F0C1FB2D1AC4F8F050E1
:10D8C8004FF0FF356FF000414046D4E94623C4E9E4
:10D8D8004851002504F58471C4E93E23C4E9402376
:10D8E80084F8295142F2107204F0E6FA38BB40F28B
:10D8F800B9113020FCF766FE2046DFF85C9007F08F
:10D9080030FAAE30C4F80C01B9F8000048B1E08B29
:10D9180038B1FFF76BF8B9F80030B0FBF3F202FB4F
:10D928001300064407F06CFD361841F10001C4E904
:10D938004661002DC4D0AD1941F10001C4E7294664
:10D94800204607F0E6FA3846BDE8F8830C27FAE7E0
:10D95800A5D60800F9470900D00D0420F0B500232A
:10D9680085B0CDE9003301238DF806306846FDF710
:10D978008BF970B10123104EB3700023CDE9023347
:10D9880002A8FDF781F9044638B10023B37005B049
:10D99800F0BD009807F014F8E8E7029D6B7B002BB8
:10D9A800EED005F50277384607F04DFD384607F00A
:10D9B80056FD6C73E4E700BFD00D0420044B002231
:10D9C800DA709A7042F210721A80FFF7C7BF00BF70
:10D9D800D00D0420014BD870704700BFD00D042033
:10D9E80008B501F091FF044B5A6882422ABF987823
:10D9F800002080F0010008BDD00D0420F7B50446D2
:10DA080006297BD8DFE801F004251523282D7400AA
:10DA18003C4B9B7803F0FF025BB900920123B0F8FE
:10DA2800B411FFF71DFC30B140F2CE613020FCF795
:10DA3800C9FD0423637302F007F904F0C9F9002350
:10DA4800E288A4F86232A4F8FE2184F8013203B017
:10DA5800F0BD03234373FAE707F04FFCC4E99401D0
:10DA6800F5E790F8150106F0A6FE6430D4F8F03119
:10DA78009528D4F8C450234F8CBF0020C0F19600DD
:10DA8800C218954288BFED1AFB7894BF00252D1A5D
:10DA980023B9D4F8DC309D4228BF1D46D4F8C061B4
:10DAA80004F1DC0006F06CFB0644022007F0FAFCE7
:10DAB8000221AD1B25EAE575854228BF05462846A3
:10DAC80007F01AFD10B12E4407F09EFC0123C9226D
:10DAD800314604F1A80006F0F7FBD4F8C0317860AD
:10DAE800D4F8C400184403B0BDE8F04007F08ABC7D
:10DAF800A83003B0BDE8F04006F06DBE40F29C715E
:10DB080094E700BFD00D0420014B1880704700BF78
:10DB1800D00D04200346074A1068D3F84920C0F8FE
:10DB28000320B3F84D20A0F8072093F8481006F01A
:10DB3800CAB900BFD80D042070B504460E46134676
:10DB4800807D6588324615F0040118BF04F157013D
:10DB5800FEF760FC4107054621D4C2070BD5012317
:10DB6800A07D84F84830FEF7B9FC0368C4F8493052
:10DB78008388A4F84D30AB0701D4012070BD094B50
:10DB880001211868D4F8573084F85610C0F80930C5
:10DB9800B4F85B30A0F80D3006F09EF9EDE70020F0
:10DBA800ECE700BFD80D042038B5C38C04460F4DF0
:10DBB8000133C3F30E03C3842B7C2BB102F042F96B
:10DBC80001F03CFC00232B7400232B7194F869307E
:10DBD8002BB101212046BDE8384006F0BCBF637C6C
:10DBE80013B1E28C9A42F4D20021F3E7D80D042055
:10DBF80010B5074C2379012B05D1237C1BB102F00A
:10DC080021F901F01BFCA069BDE81040FFF7CCBF6B
:10DC1800D80D042070B5254C2379012B04D040F68B
:10DC280082412D20FCF7CEFC98B90125237C1BB13D
:10DC380002F008F901F002FC002D36D0A06906F0C8
:10DC4800DAFE68B301F0ACFFE369BDE870409B6899
:10DC580018472168A26911F8095B02F1490392F893
:10DC68004820E80905F063FF0028DED0002120687D
:10DC780006F057F90028D8D02379A069012B02D0E3
:10DC880040F65C41CDE7237905F00F01E26903F125
:10DC980080435269013B52F8233098470546C5E74F
:10DCA800A069BDE87040FFF77FBF70BDD80D0420A4
:10DCB8000346074A906903B909B9FFF775BF137995
:10DCC800D26903F180431269023B52F823301847A6
:10DCD800D80D042003292DE9F043054685B01746E1
:10DCE80007D14388980723D40024204605B0BDE80F
:10DCF800F083428890F86830D107DBB2F4D5002B66
:10DD0800F2D14FF00108DFF8D49099F81060C6B14D
:10DD180005F042FF0828387016D002AA0DF1070155
:10DD2800FEF74EFB38B940F6F7612D20FCF74AFCA8
:10DD38004FF00208E7E702A99DF8070006F01BFD6F
:10DD480006463B78082B08D1D9F8001011F8030BC8
:10DD5800C0F3801006F00FFD0646D9F8001005F153
:10DD6800500395F84F2011F8030BC0F3801005F00D
:10DD7800DEFED9F80010044611F8030BC0F380103A
:10DD880005F000FF8146FEF7BBFB40B1B9F1080F73
:10DD98001BD04846FEF7E6FA80F00103D8B23A787D
:10DDA800082A14D01CB9AC7DA21A544254416A887E
:10DDB80053079AD4002897D176B9EC7C444518BF0C
:10DDC800002C0CBF012400248FE70020E7E780F037
:10DDD80001022240D4B2EAE7344686E7D80D04208F
:10DDE8002DE9F04F85B00823052104460DF10702FF
:10DDF8008DF80730FFF76EFF064620B9002630463B
:10DE080005B0BDE8F08F794F396807F112037A7CC5
:10DE180011F8030BC0F3801005F089FE8046002836
:10DE2800ECD13B6840F2E249A16918468D7D10F8B3
:10DE3800032BC2F340122A401D468A75D3F80320EB
:10DE4800C1F8AD208288A1F8B12015F81F1BA2697E
:10DE5800C1F3801182F8AC1002A9D3F81F00029018
:10DE680028790871D3F80F00C2F8C800587D1D7DC5
:10DE7800000440EA0520DD7C2843C2F8D000B3F84E
:10DE8800190082F81E8109FB00F0C2F8C4009D7DCC
:10DE9800C5EB451005EB800505EB85056D00A2F87F
:10DEA800D850B3F8170009FB00F0C2F8D400B3F853
:10DEB8001B00A2F8CC00B3F81D00A2F8CE0093F81E
:10DEC800243003F01F005B0982F8220082F81F311A
:10DED800A56994F912A005F1160005F051FF40F26A
:10DEE8000113A5F814314FF0FF0B85F816B1414620
:10DEF80005F1DC00FEF746FD514605F1A800FEF7E6
:10DF08000FFBA36984F8738004F17E01B3F8AA209B
:10DF180084F891B0A4F874204FF6FF729DF80700BA
:10DF2800A4F89220D3F8C420B2FBF9F2A4F88A200E
:10DF3800B3F8CC20A4F88C20B3F8CE20A4F88E2017
:10DF480093F81F2184F89020627D62B394F84820EA
:10DF5800012A28D194F84E2002F0C002402A22D18A
:10DF6800D4F84920C4F87E20B4F84D208A800828C7
:10DF780093F8AC2003F1AD0504F1840184F877200F
:10DF880004F17802D3F8AD3027D0C4F88430AB88D8
:10DF98008B8004F17701FEF713FA40B940F6E231BD
:10DFA8002D20FCF70FFB0022C4F87E20DEE794F852
:10DFB800773043F0020384F8773004F16A000C49A3
:10DFC80006F0AAF80B4B0022A0691B683A71002BD7
:10DFD8003FF415AF2146984711E7A367AB889380B4
:10DFE8000023C4F884308B80E7E700BFD80D0420F5
:10DFF800874C09006C130420032937B5044604D064
:10E00800052957D0012003B030BD08230DF10702C0
:10E018008DF80730FFF75EFE0028F3D0237C2A4DE9
:10E0280003B39DF8070094F8B630DBB923780828C5
:10E0380004F1B90284F8B7302DD004F1B801FEF725
:10E04800BFF920B94FF477612D20FCF7BBFA94F89B
:10E05800B83043F0020384F8B8301C4904F1AE002C
:10E0680006F05AF82B68042220461A7006225A70C5
:10E07800FFF750FD616B94F83820286805F042FFDF
:10E08800032328682B7101F069FE0021286807F036
:10E098004AF90020B7E72868034613F8031BC1F3C1
:10E0A800801184F8B810D0F80310C4F8B9109B8810
:10E0B8009380D2E7064B1B68002BEAD0984780F084
:10E0C8000100C0B29FE700BFD80D04206F4C0900C3
:10E0D80068130420F8B504460F4619B300F120056B
:10E0E800284606F088FFA0B963881A072ED5284667
:10E0F80006F096FF0646284606F07DFF301AC0B2A5
:10E1080006F09CFF494A936803442846936006F04A
:10E1180051FF284606F053FF01F0B0FC2179252075
:10E1280001F016FC414E002394F856203068037025
:10E1380043706388103B0D2B68D8DFE803F06367F2
:10E148005F0C674467676767676767442046BDE891
:10E15800F840FFF729BD06234370202303702046AB
:10E16800FFF7D8FC638823F008039BB2152B05D072
:10E1780094F83020E16A306805F0B5FE306801F0A7
:10E18800EDFD0021306807F0CEF802232179002048
:10E19800337101F081FC054607B9F06063881B07FD
:10E1A80004D506F048FF0544C4F8F4506388103BD2
:10E1B8000D2B36D8DFE803F038352F2F352F3535BE
:10E1C80035353535352F0C2321214370034603F8A7
:10E1D800091B52B1D4F857200121C0F80920B4F81E
:10E1E8005B209A8005F078FEB9E7226DC0F8092017
:10E1F800B4F854209A8094F84F10F3E7062303707C
:10E208004370ACE7022303700623F9E740F2596133
:10E218002D20FCF7D7F921790120BDE8F84001F05D
:10E228002BBE40F6F541F3E7F8BD00BFD80D04203A
:10E2380038B543880446102B04D10121BDE8384085
:10E24800FFF748BF0B4D2B7C23B101F0D1F84020DC
:10E2580001F0ECFD286801F081FD608810F00400F1
:10E2680002D1217901F008FE002001F0C5FD01234B
:10E278002B7138BDD80D0420024B01219869FFF796
:10E2880029BF00BFD80D042010B5124C237C1BB148
:10E2980001F0D8FD01F0D2F8A06906F0ACFB38B166
:10E2A8002379012B09D040F686312D20FCF78AF915
:10E2B800A069BDE81040FFF777BC2379E26903F154
:10E2C8008043A069D268013BBDE8104052F8233072
:10E2D800184700BFD80D0420074810B5037903F08C
:10E2E800FF0433B914222146043007F00EFB204600
:10E2F80010BD0C24FBE700BFD80D042010B5002387
:10E30800094C2371FDF766FE2060FFF7E5FF20B199
:10E318004FF442712D20FCF755F9E36913B940F227
:10E328000B31F7E710BD00BFD80D0420014B024A9E
:10E33800DA617047D80D042004E60800034B044A4C
:10E348001A60044B044A1A60704700BF681304201F
:10E35800E9DD08006C130420114B0900F8B5057DB0
:10E368000446AF1EFFB2002D3AD0012F2DD800F180
:10E37800500190F84F0005F005FC0828064624D007
:10E38800FDF7FCFF10BB023D18BF0125012F84F8E3
:10E398004850A6758CBF002701276775FEF70AF855
:10E3A800054607F02DF80022144B84F85620E5FBAB
:10E3B8000301C4E9100111462046FFF7BDFB70B9FF
:10E3C80040F2A3412D20FCF7FDF80826022D09D1C3
:10E3D80004F149010020FDF7BDFE60B90020F8BD39
:10E3E8000826F5E704F149010120FDF7B3FE0028EE
:10E3F800F4D00125CAE70025C8E700BF40420F0056
:10E40800F0B5444E85B00446327902F0FF0312B9E4
:10E418000278FF2A04D140F6DD112D20FCF7D2F84E
:10E42800B36080F869303C4B684604F120050093DE
:10E438003A4B01933A4B0293F3695B68039301F0FB
:10E4480085FC01F0B1FA01F0FDFC00F0F7FF35485A
:10E4580001F00AFB344801F073FC284606F0AAFDD7
:10E46800284606F0ACFD01F009FB2179252001F0D2
:10E478006FFA94F9120001F0F1FA04F12C01A06A84
:10E4880004F026FE074604F13401A06A04F047FEB2
:10E498000546DFB1237FCBB1B4F92650ED43ED0F2C
:10E4A800637D13B963885B0709D56FF00043D4E92E
:10E4B80010129A4208BFB1F1FF3F0DD19DB93068E3
:10E4C8000330FDF795FF307405B0F0BD002DE7D09F
:10E4D800657F002DE0D1E3E706F092FFD4E9102331
:10E4E80090429941EAD3012229462046FFF724FBAE
:10E4F80050B1FDF75FFF054606F082FF0B4BE5FBC9
:10E508000301C4E91001DAE7002DD8D040F61C2138
:10E5180083E700BFD80D042091E208001DDC080045
:10E52800B9DC0800D6BE898E5555550040420F000B
:10E5380073B50446FFF764FF00212046FFF7CAFDC4
:10E54800236E0BB101221A606388DB0724D50023F0
:10E55800124EA569CDE90033FF2373746846FCF7B2
:10E5680093FBC8B9009CA542F8D005F1B40395F80F
:10E57800B32004F1B40194F8B30005F0D8FA0028E8
:10E58800ECD094F8AC30B4F8B1207374D4F8AD3052
:10E59800C6F81230024B9A8002B070BDD80D042024
:10E5A800EA0D0420024B9861DB691B68184700BF1D
:10E5B800D80D042043881B0710B504460FD583697E
:10E5C8003C2209496A304272B3F8AA304381FF23DA
:10E5D80080F827304FF6FF73038505F09DFDFF2374
:10E5E80084F8693010BD00BF874C0900D34C09007E
:10E5F80039E20800D94C090001E0080039E50800B3
:10E60800F9DB080081E20800F4E50800F8E50800F5
:10E6180000E608000138022808B503D9C4212F20D4
:10E62800FBF7D0FF13290A4B05D811290CD810295C
:10E6380007D0D221F3E71529FBD103EB4003D88893
:10E6480001E033F8100008BD03EB40039889FAE7AE
:10E65800C86E0A00294A38B50346948810681C43D6
:10E66800402B948004D10421BDE83840FFF7C6B997
:10E67800802B01D10521F7E703F00304032C04D113
:10E6880040F6A4313120FBF79DFFDD0706D50C6865
:10E6980091602478062C0FD00B2C17D09C0706D538
:10E6A800096809780529117319D00B2921D09B060F
:10E6B80044BF0823537338BDC47B1B2CEED1002400
:10E6C8000025C0E91C450124C474E7E7C47B112C6C
:10E6D80001BF0024C474012480F85240DEE7C17BE6
:10E6E8001729E4D1002400250121C0E91E45017540
:10E6F800DDE7C17B1029DAD10021F8E7F80D042005
:10E708000C4A0346517B89B910683BB9B0F804112B
:10E71800B0F8E820914209D8FFF762B993881B073F
:10E7280006D5007C073818BF0120704700207047C5
:10E7380001207047F80D04202DE9F843614D064685
:10E748002C6800287ED1AB881A0725D594F89E300E
:10E75800FE2B04D140F2FB513120FBF733FFFE239F
:10E7680084F89E30E37B1D2B05D184F851002846A0
:10E7780005F0ECFDE673A37B232B06D1E37B233B5B
:10E78800072B94BF2A232423A373237C072B02BFC0
:10E798000223AB7384F89E30AB88DB0717D4AB88B1
:10E7A8005F0776D499077DD5287B01222B680D2831
:10E7B80083F89F2073D011287DD007287DD0FEF7DD
:10E7C80075FA034600286BD140F2EE51C4E7D5F83C
:10E7D8000080A96898F80F30D1F80090103B99F89C
:10E7E80000700F2B09D8BB1EDBB2092B67D840F28B
:10E7F800333222FA03F3D80761D509793846FDF791
:10E80800D3FE20B939462F4805F0BFFD39E0012F66
:10E8180001D9162F21D198F80E0005F0A6FD40B1B8
:10E8280098F80E30232B04D0242B07D12A2388F8FC
:10E838000E303846FEF730FA03461BE0162F14BF99
:10E84800022620266B7B1B0704D5E37B103B0F2B8E
:10E8580098BF08263046BDE8F883112F15D005D893
:10E86800072F14D00D2FE4D1174B05E0142FE0D15A
:10E87800164B1B68002BC5D0AA6849461148127967
:10E88800984700288BD00646DCE7114BF4E7114B7C
:10E89800F2E7227C062A04BF0122AA7382E70E4B04
:10E8A80008489847AB88DA06CCD5E37B092BC9D151
:10E8B8000A23E373C6E7094BF2E7094BF0E708269A
:10E8C800C0E700BFF80D0420BB51090070130420F5
:10E8D800FF51090071E90800E550090031510900AC
:10E8E8005B5109002DE9F041A0F10E040B1E1646FC
:10E8F800E4B208BF1F23172C0AD8012540F2512182
:10E90800A5400D4207D115F460051FD1082C07D08A
:10E918000020BDE8F0810021BDE8F04106F092BB7F
:10E928001468A17B242906D119463046FDF78EFBD1
:10E9380084F82C5105E02A29EAD1E37B233B072BF5
:10E94800F3D80023A37384F84A30E1E7054A146832
:10E95800002CDDD01A46014623463046BDE8F0417A
:10E96800184700BF7413042070B54D780446A5F10C
:10E978000E03DBB2152B0CD8012140F2512201FA0B
:10E9880003F6164207D10268152B927B2AD0082B72
:10E9980007D0002070BD02462846BDE8704006F04A
:10E9A80051BB242A01D02A2AF3D1204605F0BCFC09
:10E9B8002368DA7B252AECD093F863201A212046B5
:10E9C80022F0010283F86320226892F8633023F072
:10E9D800080382F86330FDF739FB2368002283F8C7
:10E9E8002C21D6E72C2AD4D1024B1B68002BD0D07F
:10E9F8009847CEE7781304202DE9F04190F86E721D
:10EA080004460D4690F86F627FBB90F8141176BBF0
:10EA180094F8153184F8141184F81531FF2384F81B
:10EA28001631154B04F1A8081B680BB140469847EE
:10EA380094F82C31012B01D03E4303D0237B43F0C3
:10EA480001032373404605F0ADFB18B1237B43F067
:10EA58000203237306212046FEF7D0FF002384F823
:10EA68002C3135B1A373BDE8F0813946CFE7334681
:10EA7800D0E7E573F7E700BF7C13042073B5484D72
:10EA8800002604462860AE806E73AE73FF2380F8BC
:10EA98004C30B0F8B231002B7CD090F89E30FE2B71
:10EAA80078D190F82031002B74D0037C063B012BE1
:10EAB80070D990F821310221A0F84460012280F831
:10EAC800A03006F018FB0221284684F8BA61FEF748
:10EAD80037F8B4F8B6112046B4F8DA300139B4F88A
:10EAE800B82189B2B1FBF3F31344A4F8B831B4F8F0
:10EAF80040300B44A4F8403006F04AFB10B1636B79
:10EB08000B446363B4F8B2310026012B9CBF013378
:10EB1800A4F8B23109B184F8BE61E37B84F8BA6124
:10EB2800093B012B0FD8E388B4F86C229B1A19040F
:10EB380009D404F26E2104F1160005F021F9E673F8
:10EB4800FF2384F84B30B4F8B62104F1A80120461D
:10EB580005F05DF9E37B134A103B13490F2B8CBF7B
:10EB6800002301230093114B2868FCF7EBFD2C6868
:10EB7800237BDA0703D500210948FDF767FA237BD1
:10EB88009B0703D504F23F10FDF712FF0023237300
:10EB980002B070BD94F89E10FE299AD0004896E7FE
:10EBA800F80D042009E708005DE60800B9EB080045
:10EBB8002DE9F047B24F0E468046B9883C688D056E
:10EBC800204655BFB4F8402000230132A4F8403055
:10EBD8004CBF84F8BE31A4F8402006F0D9FA38B109
:10EBE8000B4604F59B7204F1A8012046FEF714FABF
:10EBF800BB8803F4C06323B1A37C002B45D0032B4F
:10EC080049D0A27CBB88012A03D1180544BF02223F
:10EC1800A274B8F1000F40F08F80590657BFB4F8BE
:10EC2800D8214246013292B2A4F8D82103F00A0250
:10EC38000A2A0CD13A7B022A09D123F0080330466C
:10EC4800BB80FFF779FD30430823C6B2BB8030464E
:10EC5800FFF772FD3D68304395F89E30C6B2FE2B33
:10EC68003BD1D6BB2B7C063B012B36D995F82031FE
:10EC7800ABB195F8213101220221A5F8446085F84D
:10EC8800A030284606F037FA27E00121A174204673
:10EC9800FEF7B4FEB5E702230121A374F7E795F860
:10ECA8000FA0AAF10F0A5FFA8AFABAF1100F40F220
:10ECB800E9802B68DA0702D532460921E1E798078F
:10ECC80040F18D8032460C21284606F014FA95F85A
:10ECD800533043F0010385F85330B4F8B83194F851
:10ECE800BB510133A4F8B831002D00F0FB81FCF7CB
:10ECF800E5FD10B10023A4F8B831A17C012940F248
:10ED08002382237C072B40F00582B4F84030022B85
:10ED180040F21A82B4F842500135ADB2E3882B4470
:10ED2800A4F8B03194F8BC31002B00F01182012313
:10ED3800E2881344A4F8B431BB883D685B0657BF2A
:10ED4800B5F8C4310023B5F8B6219B1858BF9BB25B
:10ED5800A5F8C43195F820311BB92B7C063B012B53
:10ED680006D8B5F84430B5F8B6211344A5F84430B0
:10ED780095F84A1031B1B5F84630B5F8B6211344C4
:10ED8800A5F8463095F95020002AC1BFB5F84E3095
:10ED9800B5F8B6011B18A5F84E3095F8313063B9AF
:10EDA800B8F1000F40F05E82BB7B022B40F0168268
:10EDB80095F8A030062B18BF162395F8302022B9F5
:10EDC8002F4885F83130FDF77BFF284606F040FADA
:10EDD800002384F84C30BDE8F047FDF78DB959079A
:10EDE80002D5324613214CE71A0706D595F8983014
:10EDF800324685F8A030072143E713F0300F3AD0A8
:10EE080095F82331002B5BD195F82231D3B1EB7BF8
:10EE180005F1A80005F5917105F26E22282B28D07E
:10EE2800AB7BA3F1280CDCF1000343EB0C0305F0EA
:10EE3800ABF92B6823F0200343F010032B60002369
:10EE480085F822312B68DA063AD505F1A80005F0D5
:10EE5800A9F918B105F23F10FDF7AAFDB5F8FE3083
:10EE680000221521A5F8A030B5F80231A5F8A23086
:10EE780007E70123DBE75B0622D50022242100E710
:10EE8800F80D0420D7F8009099F80F30172B2DD0E3
:10EE980011D8102B1DD0152B1FD0AB7B002B63D1A5
:10EEA800EB7B0F3B102B67D995F83E30002B63D0D6
:10EEB80001221221E5E61F2BEFD1324606210AE096
:10EEC8003868C37B252B3FD0342BE6D10022112193
:10EED800D8E632460B214846D4E64846FDF764FF9B
:10EEE80000283FF4FAAE00220421F4E799F86832CA
:10EEF800012B07D132460521484606F0FCF889F86F
:10EF08006862EAE699F86832022BD9B27FF4E5AE76
:10EF180099F8523053B10623324689F8A030484652
:10EF280006F0E9F8002389F86832EAE73B6840F21E
:10EF38000632A3F89A20324699F8623013F0040F8B
:10EF48000CBF0D211121EAE790F82C31022B02D1D8
:10EF58000022172196E690F82C31012B9DD190F8CC
:10EF68002D31002BF4D098E7082B05D195F899306E
:10EF7800012285F8A0303EE7BAF1100F7FF6ADAE5A
:10EF88003D6895F80E90B9F1000F7FF4A6AE95F89C
:10EF980033313BB101220E21284606F0ACF885F842
:10EFA8003391AEE795F8323183B195F8539019F063
:10EFB800030A0BD149F0010901220C21284606F069
:10EFC8009AF885F8539085F832A19AE795F8223196
:10EFD8003BB395F8233123BBEB7B05F1A80005F57E
:10EFE800917105F26E22282B19D0AB7BA3F1280C66
:10EFF800DCF1000343EB0C0305F0C6F8002385F8A9
:10F00800223101221421284606F075F8B5F8FE30A1
:10F01800A5F8A030B5F80231A5F8A2305DE60123C5
:10F02800EAE795F82C31012B3FD195F82D31002BCB
:10F038003BD1EA7BA2F12303072B36D995F81401BB
:10F04800012806D0022804D04FF43F710620FBF7B0
:10F05800B9FA95F81511012901D00229F4D102282D
:10F0680095F82E310BD0012B14BF0023012343B98F
:10F07800093A042A7FF631AE0122162101E6022B55
:10F08800F2E7022995F82F310DD0012B14BF002388
:10F098000123002BECD000217548FCF7D7FF002393
:10F0A80085F82C3119E6022BF0E795F835314BB18C
:10F0B80095F82D3133B9EB7B233B072B02D901227D
:10F0C8002321DEE595F83431012B05D1002385F89D
:10F0D800343101222521D4E595F83431022B7FF40F
:10F0E800FCADF3E7FCF7E4FB08B1A4F8B851FCF772
:10F0F800EDFB00283FF401AE94F8BE310133DBB2DA
:10F10800022B84F8BE3182BF0023A4F8B83184F8FA
:10F11800BE31F2E594F83E3013B1A37B0E2B13D128
:10F12800B4F842502046B4F84030ED1A033D06F0DA
:10F138002FF858B1A36B626B033B9B1A9D42A8BF83
:10F148001D46012D3FF7E9AD0125E7E52B46F5E71B
:10F15800012D7FF6ECADE37B13B10A2B7FF4E7AD0D
:10F16800A37B002B7FF4E3AD237C002B7FF4DFAD82
:10F1780002297FF4DCAD94F8BE31002B7FF4D7ADC3
:10F18800D4F8BC00B4F8DA9003F0F4FD00283FF49A
:10F19800CEAD94F89E30FE2B7FF4C9ADB4F8B231F1
:10F1A800012B7FF6C4ADB4F8B821B4F8CC309A423C
:10F1B800BFF4BDAD013D9B1AADB29BB2B5FBF9F5ED
:10F1C8009D4228BF1D4605FB09F3003D03F10103DD
:10F1D80018BF01259BB284F8BA51A9E5012B08D1C3
:10F1E8006B7C002B7FF4E9AD00212846FEF706FC76
:10F1F800EEE55EB1F00633D4310733D4B20633D42A
:10F20800B30733D14FF43161312020E739B1B5F874
:10F218004610B5F84830994201D32223CDE5002A9B
:10F2280005DDB5F84E20B5F848309A42F5D2B5F864
:10F238004420B5F842309A4209D2AA7CB5F8403049
:10F2480052B1B5F842209A42CED80823B5E595F8D0
:10F258002031002BE1D1F0E7052BC5D93E23ACE5E1
:10F268001E23AAE53D23A8E52323A6E52A23A4E532
:10F27800F80D0420D0F87432D0F8C420934213B5A6
:10F288000446019005D1D0F87812D0F8CC209142EC
:10F2980016D0B4F8AA2004F27D101049A4F88721EA
:10F2A80040F2E242B3FBF2F3A4F88931B4F87832C1
:10F2B800A4F88B31B4F87A32A4F88D3104F035FF14
:10F2C800B4F87A2201A8D4F87412FDF741F90023A2
:10F2D800E3730323A37402B010BD00BF8D4409007B
:10F2E800074B93F900301844142804DC10F17F0F01
:10F2F80003DB40B27047142070476FF07E00704700
:10F30800090E04207F2307B50DF107008DF807309B
:10F3180000F0A6FD03469DF9070053B1094B5B7841
:10F328005B425BB21844142806DC10F17F0F05DB42
:10F3380040B203B05DF804FB1420FAE76FF07E00DA
:10F34800F7E700BF090E0420024B00221A705A701A
:10F35800704700BF090E0420064BD3F8000138B1EE
:10F36800D3F8040120B1D3F80801B0FA80F04009BD
:10F37800704700BF00A00440034B00221A705A7067
:10F3880010229A70704700BF0C0E0420F8B506468C
:10F39800022014460D4600F0CDF8114B114A012702
:10F3A8005C60191D9A6002F1807203342D011F7090
:10F3B800DC601D83C3E904260022243303F80A2CE9
:10F3C8000D2203F8092C084AC2F83015074903C969
:10F3D80083E80300C2F80875C2F83835F8BD00BFE5
:10F3E8000C0E04200300000B00A00440DC6E0A0091
:10F3F80008B5022000F09EF80D4B01221A70002279
:10F408000C4BC3F80021C3F80421C3F808210A4AA9
:10F41800C3F8802003F56433C3F88C20A3F57C334C
:10F42800C3F88C21A3F500530822C3F8042508BDAE
:10F438000C0E042000A0044003000080154A08B503
:10F448001378FBB100231449C1F8803001F5643109
:10F45800C1F88C30A1F57C31C1F88C3108210F4BF3
:10F46800C3F80815FFF778FF88B101235370938E0E
:10F47800FF2B03D9BC213B20FBF7A4F8DBB2937028
:10F48800002313700020BDE8084000F053B8102393
:10F498005070F4E70C0E042000A004400020044043
:10F4A800094B1A7862B1094BD3F8002152B1D3F84D
:10F4B800040140B1D3F80801B0FA80F04009704760
:10F4C80058787047022070470C0E042000A00440B2
:10F4D800064A08B513782BB1FFF73EFF20B192F822
:10F4E800340008BD9078FCE71020FAE70C0E0420E1
:10F4F80038B5084C0025D4F80035032B04BF012388
:10F508006360C4F80055C4F8005500F0A3FFC4F8C0
:10F51800805038BD00A00440054B4FF48062C3F80A
:10F528008820BFF34F8FBFF36F8FFFF7E1BF00BF96
:10F5380000E100E010B50446FFF7DAFF012C06D021
:10F54800022C09D03CB18C213D20FBF73BF8074B3E
:10F558000222C3F8002510BD044B0322C3F800257E
:10F5680002F10042C3F88020F5E700BF00A0044084
:10F57800024BD3F8A00300F00100704700C0FF0061
:10F58800084BD3F8A423D3F8A833511C9BB203D15A
:10F598004FF6FF718B4203D00260838001207047D1
:10F5A8000020704700C0FF000B4B30B5D3F89053D4
:10F5B800D3F89443D3F89813D3F89C2305EA0403AB
:10F5C8000B401340013317BF056000204460816081
:10F5D8001CBFC260012030BD00C0FF000B4B30B51E
:10F5E800D3F88053D3F88443D3F88813D3F88C2303
:10F5F80005EA04030B401340013317BF05600020E0
:10F60800446081601CBFC260012030BD00C0FF00A3
:10F61800064B0022C3F80022C3F81822C3F82022A0
:10F62800C3F80C22C3F81422704700BF00A008409A
:10F6380070B5134D034608466E7F26B940F6C101E2
:10F648003E20FAF7BFFF63B9012EAC69297F05D1C7
:10F6580000F074FD20442B69C01A70BD05F069FEE6
:10F66800F8E7012B09D1012EAC69297F02D100F0FE
:10F6780055FDEFE705F068FEECE70020EBE700BF7B
:10F68800480E04200B4B93F8290088B193F82830D2
:10F698007BB1094BD3F8002442F00102C3F80024DF
:10F6A800D3F8200500F0F600023818BF0120704793
:10F6B80001207047480E042000A0084008B5012822
:10F6C800084B1871084B06D0022808D040F645515F
:10F6D8003E20FAF777FF0322C3F8002508BD04226D
:10F6E800FAE700BF480E042000A0084008B570B92A
:10F6F800104B28311846D9600F4900F04DFF0130F2
:10F70800012816D940F2C2613E20FAF75BFF0128B2
:10F718000CD1084B29311846D960074900F042FF3F
:10F728000130012805D940F2CC61EDE74FF4DA61E8
:10F73800EAE708BD28000420E46E0A0008B50C4B6F
:10F748005B78012B09D100F033FF013001280ED975
:10F7580040F611113E20FAF735FF022B07D100F0D1
:10F768002DFF0130012802D940F61711F2E708BD34
:10F77800480E04200A4B40F409000A4A1B8940F04D
:10F788004000B3F5166F36BFA3F63813A3F516631A
:10F7980043F48073C2F80837C2F84005704700BFC9
:10F7A800480E042000A0084073B50C460546134EC9
:10F7B800FFF784FF20462146FFF7DCFF01AB96F9EF
:10F7C8000520284600F084FE9DF8050000F0FCFEA8
:10F7D80020B140F2E3513E20FAF7F4FE31469DF99C
:10F7E800040000F037FC064B40F20312C3F8442E25
:10F7F80040F25B62C3F8482E02B070BD480E042088
:10F8080000A008402DE9F04106460C46174605F0D1
:10F8180001FE0028FBD02F4D4EBB01236B7095F8DD
:10F8280028301BB9A9793846FFF7BEFF2A4B4FF499
:10F838007A7253F8273003F5FA73B3FBF2F3274AC9
:10F84800E41A274BC3F8002129690127234B2144D7
:10F8580085F82870234DC5F84015C5F8C031FFF765
:10F8680011FF044660BB00242046BDE8F081012E4C
:10F8780021D102236B7095F82830B3B995F806802A
:10F888003846FFF71BFF4046FFF774FF144BD3F8C9
:10F89800002442F01002C3F8002440F20312C3F817
:10F8A800442E40F25B62C3F8482E0D4B293C0B4AAC
:10F8B800C3F80421C8E740F634013E20FAF782FE77
:10F8C800EF64D5F84C358B42CDDA3046FFF70EFFA2
:10F8D800CAE700BF480E0420586F0A000B000080DA
:10F8E80000A008400050084040220021014806F0CE
:10F8F8000CB800BF480E0420024B0344187D00F5E5
:10F9080016607047E46E0A00024B98691B69C01ABA
:10F91800704700BF480E04200A4B1A7FD3E9043011
:10F92800C01A094B03EB8203DB6BC01A074B53F871
:10F9380022304FF47A7203F2F313B3FBF2F3C01AD6
:10F94800704700BF480E0420E46E0A004C6F0A009E
:10F95800FF2808B504D940F2CB213E20FAF732FE41
:10F96800012904D0022919D04FF44F71F5E700237B
:10F9780043F4801340F000700A4A43F4847340F45F
:10F988004030C2F8203EC2F8280ED2F8203503F0E5
:10F99800F703032B05D140F25631DEE74FF08073B1
:10F9A800E6E708BD00A00840F8B5234E4FF480678D
:10F9B800C6F89070BFF34F8FBFF36F8F05F026FD29
:10F9C80004461E4D05F0C6FD0121001B1C4C286194
:10F9D800C4F8A410FFF71CFE4FF40023C4F8401E1F
:10F9E800C4F80034174B187C00F000FE02F0B0FE9B
:10F9F800154B164AC4F83833154BC3F8C820013ADA
:10FA0800C3F8C42040F6FE72124BC4F81433124BEC
:10FA1800C3F804250023AB832B85AB614FF48073B7
:10FA2800C6F89071C4F888342B6C376103B19847D5
:10FA3800BDE8F84000F0A4BD00E100E0480E042055
:10FA480000A0084028000420030000800600008071
:10FA5800005008400100008000200840014B587108
:10FA6800704700BF480E0420020E034B0002C3F883
:10FA7800342EC3F82C0E704700A00840044B054AEA
:10FA8800034490711B7D03F516631381704700BF13
:10FA9800E46E0A00480E0420F8B5334C06460F46BB
:10FAA80094F8293023B940F206713E20FAF78AFD0E
:10FAB80001232E4A84F82830D2F8003443F0010399
:10FAC800C2F8003405F0A6FC0028FBD02EBB0123A9
:10FAD800A17938466370FFF767FE6378012B02D07F
:10FAE8004FF4E961E1E7224AD36402F5A0421360CA
:10FAF8001F4B3046D3F84C552946FFF7F7FD2369CD
:10FB0800ED1A76BB1B4B4FF47A7253F8273003F586
:10FB1800FA73B3FBF2F35819F8BD012EE8D10223AA
:10FB2800A57938466370FFF7C9FD2846FFF722FE1E
:10FB38000E4BD3F8002442F01002C3F8002440F220
:10FB48000312C3F8442E40F25B62C3F8482E627871
:10FB5800022A02D040F25171A7E7054AD6645E60D6
:10FB6800C6E705F12900D7E7480E042000A00840A1
:10FB780000500840586F0A0008B5FFF743FE58B90F
:10FB8800064B0122C3F8400503F5A04302201A6181
:10FB9800BDE80840FCF7C6BE08BD00BF00500840DD
:10FBA80037B5254B4FF48061244A4FF0FF30D3F826
:10FBB8008844C3F89004C2F890114FF400222049F9
:10FBC80004F48074C3F8002400221E4D2A85C1F86D
:10FBD8004025C3F80821C3F80021C3F80421D3F84D
:10FBE8002015C9B2D1B18DF80700C3F8202201222F
:10FBF8001A619DF8072012B1D3F820223AB19DF876
:10FC080007305BB940F6FF013E20FAF7DBFC9DF8B0
:10FC18000720013AD2B28DF80720EAE7FFF78EFDF8
:10FC28000022054BC3F820222A801CB14FF48072B1
:10FC3800C3F8882403B030BD00A0084000E100E00C
:10FC480000500840480E042070B50024254D264E6B
:10FC5800C5F84845C5F84445C5F84045C5F84C457C
:10FC6800FFF79EFF00F092FCC5F8C441C6F80841B2
:10FC7800C6F80041C6F80441C5F8C840C5F8C440F4
:10FC8800C6F80441C6F8004102F07AFD174B40F669
:10FC9800FE72C6F83843C6F81443C5F8C041C3F825
