:1000000058080020A17E0000B9E60000BBE7000010
:10001000DDE70000FFE7000043E8000021E8000002
:100020009DE600009DE600009DE60000696200007C
:10003000BFE600009DE6000039750000C5E600003F
:100040009DE600009DE600009DE600009DE60000A4
:100050009DE600009DE600009DE600009DE6000094
:100060009DE600009DE600009DE600009DE6000084
:100070009DE600009DE600009DE600009DE6000074
:100080009DE600009DE600009DE600009DE6000064
:100090009DE600009DE600009DE600009DE6000054
:1000A0009DE600009DE600009DE600009DE6000044
:1000B000CBE60000D1E60000D7E60000DDE6000058
:1000C0009DE600009DE600009DE600009DE6000024
:1000D0009DE600009DE600009DE600009DE6000014
:1000E0009DE600009DE600009DE600009DE6000004
:1000F0009DE600009DE600009DE600009DE60000F4
:100100009DE600009DE600009DE600009DE60000E3
:100110009DE600009DE600009DE600009DE60000D3
:100120009DE600009DE600009DE600009DE60000C3
:100130009DE600009DE600009DE600009DE60000B3
:100140004F760000216500009DE600009DE600005E
:100150009DE600009DE600009DE600009DE6000093
:100160009DE600009DE60000E3E60000E9E60000F1
:10017000F5E600009DE60000EFE600009DE60000C9
:100180009DE600009DE60000FBE600009DE6000005
:1001900001E7000007E700009DE600009DE6000083
:1001A0009DE600000F1201009DE600009DE60000A4
:1001B0009DE600009DE600009DE600009DE6000033
:1001C0009DE600009DE600009DE600009DE6000023
:1001D0009DE600009DE600009DE600009DE6000013
:1001E0009DE600009DE600009DE600009DE6000003
:1001F0009DE600009DE600009DE600009DE60000F3
:100200009DE600009DE600009DE600009DE60000E2
:100210009DE600009DE600009DE600009DE60000D2
:100220009DE600009DE600009DE600009DE60000C2
:100230009DE600009DE600009DE600009DE60000B2
:100240006B7600009DE600009DE600009DE6000044
:100250009DE600000DE7000013E7000013E7000033
:1002600013E700009DE6000019E700001FE700000B
:100270009DE600009DE600009DE600009DE6000072
:100280009DE600009DE600009DE600009DE6000062
:100290009DE600009DE600009DE600009DE6000052
:1002A0009DE600009DE600009DE600009DE6000042
:1002B0009DE600009DE600009DE600009DE6000032
:1002C0009DE600009DE600009DE600009DE6000022
:1002D0009DE600009DE600009DE600009DE6000012
:1002E0009DE600009DE600009DE600009DE6000002
:1002F0009DE600009DE600009DE600009DE60000F2
:100300009DE600009DE600009DE600009DE60000E1
:100310009DE600009DE600009DE600009DE60000D1
:100320009DE600009DE600009DE600009DE60000C1
:100330009DE600009DE600009DE600009DE60000B1
:10034000877600009DE600009DE600009DE6000027
:100350009DE600009DE6000025E700002BE7000079
:100360009DE6000031E7000037E700003DE70000B0
:1003700043E7000049E700004FE700009DE600006A
:100380009DE600009DE600009DE600009DE6000061
:1003900055E700009DE600005BE700009DE60000D9
:1003A0009DE600009DE600009DE6000061E700007C
:1003B0009DE600009DE600009DE600009DE6000031
:1003C0006DE7000073E7000079E700007FE70000B9
:1003D00085E700008BE700009DE600009DE6000039
:1003E00085E600009DE600009DE600009DE6000019
:1003F0009DE600008BE6000091E6000067E7000044
:100400009DE600009DE600009DE600009DE60000E0
:100410009DE600009DE600009DE600009DE60000D0
:100420009DE600009DE600009DE600009DE60000C0
:100430009DE600009DE600009DE600009DE60000B0
:10044000A37600009DE600009DE600009DE600000A
:1004500091E700009DE600009DE700009DE600009A
:10046000A3E70000A9E700009DE600009DE600006C
:100470009DE60000AFE7000097E700009DE6000062
:100480009DE600009DE600009DE600009DE6000060
:100490009DE600009DE600009DE600009DE6000050
:1004A0009DE600009DE600009DE600009DE6000040
:1004B0009DE600009DE600009DE600009DE6000030
:0804C0009DE6000097E6000034
:1004E0007FE97FE907F03CBD7FE97FE907F04ABD7E
:1004F0007FE97FE907F07CBD7FE97FE907F06ABD0E
:100500007FE97FE907F050BD000000000000000017
:1005100000000000000000000000000000000000DB
:1005200001015F5F030100001F0100006114000072
:100530000020000000000000010000000100000099
:1005400000000000000000000000000000000000AB
:10055000021F0000B83C00200000000070000000F6
:10056000462C010080000000000F00000100000088
:10057000F50600000100000001015F5F00010000BE
:100580001F000000993B0000000700000000000071
:100590000300000001000000000000000000000057
:1005A0000000000000000000051F00006012002095
:1005B000000000008000000070000000400000000B
:1005C000512C010060000000010700000100000044
:1005D000053200000100000001015F5F0101000021
:1005E0001F0100002B1B0000001000000000000095
:1005F00000000000010000000000000000000000FA
:100600000000000000000000011F0000B85C002096
:10061000000000006F2C010070000000020F0000BD
:10062000010000005D0E00000100000001015F5F9D
:10063000040100001F010000E52C0000000500007F
:1006400000000000000000000100000000000000A9
:10065000000000000000000000000000011F00007A
:10066000B86C002000000000942C01004000000045
:100670000507000001000000D12A00000100000071
:1006800000015F5F02000000FE0B0000F962000045
:100690000004000000000000000000000000000056
:1006A00000000000000000000100FFC3000000C4C3
:0C06B00000FE000060AD00200000000013
:1006C00038B50025064B294603F580541846D4F862
:1006D0000024C4F804540EF023F9C4F8005438BDC3
:1006E000B8710020024BD3F8043403600020704737
:1006F000B88100202DE9F04F04680546A5B0002C14
:1007000040F00C812146202204A80EF009F9214670
:1007100020220CA80EF004F92146042414AF402234
:1007200038460EF0FDF805F1200353F8041D22466B
:10073000013C09B1144601E0002CF6D1042605F174
:10074000300353F8041D3246013E09B1164601E05C
:10075000002EF6D12CB96FF08304204625B0BDE8F9
:10076000F08F40233A460021686807F0A5FC402836
:10077000F1D1CDE904700127DFF8A8A10DF110082F
:1007800005F110090AF5805BBC4230D10CAF3C4644
:100790000021654A05F11C00D2F8003400EB860800
:1007A000A2F58059404540D109B1C2F80034002378
:1007B000CDE90233059BA968402BC2F80414049AC2
:1007C00040F0A080138D180A03285BD0012800F0A8
:1007D00082801268831ECDE90221092B00F28C80F1
:1007E000DFE803F04150555B61676D737E8459F813
:1007F000043F1A1D21D8DBF80004D91C21F00301A5
:10080000C0F5A052914218D8014400EB0A02CBF87F
:10081000001468683946019207F04EFC019AC8F846
:100820000C00013748F8082FAEE750F804EF1EF12E
:10083000040F07D909B1C2F80034FFF741FF6FF088
:100840008C048AE70EF1030C2CF0030CC3F5A05ABC
:10085000D44504F10804EDD803EB090144E9021E74
:10086000634401219EE702AA0CA904A801F0A7F89D
:1008700004464FF00008464507F1080745D1FFF749
:100880001FFF6AE70CA904A800F012F9F0E702AA1A
:100890000CA904A800F0D2FEEAE702AA0CA904A859
:1008A00000F0ECFDE4E702AA0CA904A800F07DFF2B
:1008B000DEE702AA0CA904A801F07BF8D8E702AA97
:1008C0000CA904A801F078F8D2E702AA0CA904A8A0
:1008D00000F0D0F9CCE70CA904A801F013F9C7E7A0
:1008E00002AA0CA904A801F01AF9C1E702AA0CA9EE
:1008F00004A801F017F9BBE70C4803F0CFFB6FF039
:100900008504B6E76FF08004B3E7414657E9022358
:10091000686807F0DBFB08F10108ACE76FF08504BD
:100920001BE700BFB8710020B8810020182D00001F
:1009300008B54FF40C52002102480DF0F1FF0020E1
:1009400008BD00BFB81900200023F7B50C680746A2
:100950000E461546019314BB22B3146001A8FFF79D
:10096000C1FEA8B94FF48C6C104A0CFB04F3D158AB
:10097000A646013471B94FF0010E02EB030C42F8A8
:1009800003E0019910331344CCE9011734602B6064
:1009900003B0F0BD082CE8D16FF08400F8E76FF0E9
:1009A0008800F5E76FF08600F2E700BFB819002075
:1009B0000023F7B505680193013D072D036004D9B5
:1009C0006FF08604204603B0F0BD01A8FFF78AFE51
:1009D00004460028F6D14FF48C635D430A4E7359E8
:1009E0007719012BECD17A68019B9A42E8D105F185
:1009F00010004FF48A62214630440DF091FFC7E9A0
:100A000001447451DEE700BFB8190020002373B51C
:100A10004C1E072C06461546019303D96FF088003B
:100A200002B070BDC2B101A8FFF75CFE0028F7D18B
:100A30004FF48C6202FB04F1094B5C585A18012CEC
:100A4000ECD19468B442E9D15468019A9442E5D15A
:100A5000103119442960E3E76FF08600E0E700BF3A
:100A6000B819002042F20403984202D0B0F5105F9A
:100A700014D101F0FE43B3F1A06F08BF21F47E1141
:100A8000B1F1052F0CD007D8064B994208D0064883
:100A90000B1A5842584170470448F9E70020704744
:100AA000012070470002C0030044400400024005DA
:100AB00000232DE9F043D0F8008085B0B8F82890E5
:100AC0000546A9F540720F460293082A50D8DFE880
:100AD00002F0192A354F4F4F4F4F05000A6812B9DF
:100AE0006FF080040AE04B68032BF9D9D8F8043082
:100AF0005F49591A4B424B4113600024204605B010
:100B0000BDE8F0830B1D01934B6800930B68D0E99F
:100B10000212D8F804000EF049FB04460028EDD07C
:100B200000237B60EAE7436900938168D0E90323EF
:100B3000D8F804000EF04DFB0446DFE70E68002EE7
:100B4000CED04B68032BCBD9D8F8083031460320E0
:100B5000336002AAFFF7F8FE04460028CED1D8F889
:100B6000041002980EF0B9FA04460028C5D02BE014
:100B70000320D8F8081002AAFFF748FF6FF441736A
:100B80004B44022B04465DD83E68002EA8D07B68FB
:100B9000032BA5D9D8F808303360002856D040F28E
:100BA00007339945A9D0A9E70298D5E902120EF0BA
:100BB000B4FAC1E7029807F10C03D7E902120EF06C
:100BC000C0FA044620B900243046FFF7F1FE95E74D
:100BD0000023FB6092E70298D5E902120EF0C2FAF8
:100BE000044600288AD1EEE702980EF06BFA04461C
:100BF000EAE700233E680393002E3FF471AF7B6861
:100C0000032B7FF66DAFAB68002B3FF469AFEA684A
:100C1000032A7FF665AF1B6831460320336003AAC1
:100C2000FFF792FE044600287FF468AFDDE9020179
:100C30000EF0F8FA044600283FF460AFC4E76FF006
:100C400085045BE700287FF459AF0646A9F2033319
:100C5000042BF4D801A252F823F000BFA90B000026
:100C6000F30B0000B50B0000D70B0000E90B0000F0
:100C70000900000200232DE9F04706688EB0B6F89F
:100C800028900DF1140807460D469246D2E900213E
:100C90004046049300F03EFFB9F5106F0FD12B1DB5
:100CA00003936B6802932B680193FB680093BB6806
:100CB000706898E806000EF0D7FF044616E040F68C
:100CC0000113994516D12F68002F00F090806B68B2
:100CD000032B40F28C80B368394604203B6004AAA1
:100CE000FFF732FE0446002800F0928020460EB046
:100CF000BDE8F0870420B16804AAFFF787FE044628
:100D0000A8B140F60A139945F0D12F68002F6ED094
:100D10006B68032B6BD9B3683B60002C7FD10498C0
:100D20000EF0C6FD04463846FFF742FEDEE7A9F6A0
:100D30000219B9F1080F68D801A353F829F000BFD0
:100D4000650D0000790D0000830D0000AB0D000063
:100D5000910D0000F50D00009F0D0000B90D000081
:100D60000B0D00002968002941D06B68042B3ED18F
:100D700004980EF0CBFDA0E7316B04980EF0CFFD88
:100D80009BE7718D0498D7E902230EF07EFE94E76D
:100D9000718D0498D6E90C2308F0A6FA8DE7049823
:100DA000D5E900120EF0CCFD87E7718D049898E824
:100DB0000C000EF073FE80E72E68C6B16B68032B43
:100DC00015D9B96899B1FA681C2A10D107A80DF095
:100DD00082FDDAF8040007A900F09FFE424604995C
:100DE00007A80EF0C3FD059B044633607EE76FF055
:100DF00080047BE7FB68718D0193BB6804980093C6
:100E000098E80C0008F0A2FA57E76FF085046DE748
:100E10007168049808F00EFA0446002883D1002473
:100E200064E700BF08B51422024903480DF053FDE2
:100E3000014808BD382D0000C0AA002008B54FF4B5
:100E40000251044802F0DCF8034807F049FA002098
:100E500008BD00BF408A00200D1B00006FF47A72AD
:100E6000F0B50368044613448DB0032B7CD8DFE84B
:100E700003F002284C6B0369082B02D06FF0800549
:100E80005FE08569042DF9D10021406808AA07F0C8
:100E900013F90828F2D12B460221606806AA07F050
:100EA0000BF90428EAD16168314A63691160069A36
:100EB000CDE90032DDE90823A06800F01DF9054600
:100EC0003FE00369082BD9D14569042DD6D1002113
:100ED000406808AA07F0F0F80828CFD12B46012176
:100EE000606806AA07F0E8F80428C7D16168204ABC
:100EF000236A116005AACDE90132069B0093A06820
:100F0000DDE9082300F070F9D9E70369082BB5D1B2
:100F1000076A0C2FB2D10021406806AA07F0CCF86E
:100F20000828ABD1DDE9062308AE0096A06800F0E2
:100F3000DFF9054628B901463B463246606807F0AE
:100F4000C5F828460DB0F0BD0369082B96D10021E5
:100F5000406808AA07F0B0F808288FD1DDE9082317
:100F6000A06800F0D7F9AAE76FF08505E9E700BFB0
:100F7000C0850020024603480B460068012107F0A7
:100F80009BB800BFC0850020024603480B4600689E
:100F9000002107F09BB800BFC08500201FB5CDE938
:100FA0000201084301921BD004220F480DEB0201FD
:100FB0000DF091FC08220D480DEB02010DF08BFCA9
:100FC00001980B4BDFF82CC00B4AB0F5807F08BFAF
:100FD0009C460549604600F00BFF05B05DF804FB38
:100FE0006FF08600F9E700BFD4AA0020D8AA00203D
:100FF000D4870020EC870020048A002030B5364BCF
:1010000085B09D6AA8470369042B23D1A847334CB8
:101010008368A360A847037D01A8237604F0CEFF70
:10102000C0B9019BA26863609DF80C302146534310
:10103000029A2B48B2FBF3F222822A4AE36000F0C4
:101040007DFEB0B9264800F0B7FE30B9A847036965
:10105000042B10D06FF080000BE0234811F0ACFBA4
:101060001F4800F0C3FE20B91D4800F0A5FE00286F
:10107000ECD005B030BDA8471C4C8368A360A847DE
:10108000037D01A8237604F08BFF0028E2D1019BA9
:10109000A26863609DF80C3021465343029A1448BD
:1010A000B2FBF3F222820F4AE36000F047FE002811
:1010B000DFD10F4800F080FE0028DAD00D4811F093
:1010C0007BFB0B4800F092FE0028D2D1084805B007
:1010D000BDE8304000F070BED87D00009C190020B3
:1010E000EC870020F82C00004C2D00008019002017
:1010F000D4870020722D00002DE9FF471946DDE955
:101100000C5452EA01030746104632D0072C5CD833
:10111000B7F5807F02D0B5F5007F2AD83A46FFF7B1
:101120003DFF30B92A4B9B68D90705D56FF0840085
:1011300021E010F18C0F1ED14FF00008DFF89090E5
:1011400044F44034234EDFF890A0C9F80450C9F8A5
:101150000840B5F5007F2C4628BF4FF400741F48A7
:101160002146FFF707FFB7F5807F2BD0B8F1000FBE
:1011700004D06FF0860004B0BDE8F0874FF404732C
:101180000122CDE9004ACDE9023215490C22134B68
:101190000F4800F0CCFC0028EDD153461148CDE9B2
:1011A00000830B4A23460E4900F044FE0028E2D19A
:1011B000D9F808302D1B23F44033C9F80830A04477
:1011C000C7D1D8E73046054BE9E76FF08500D2E795
:1011D000048A0020D4870020C485002004880020D1
:1011E000D4AA0020EC8700202DE9FF471946DDE94D
:1011F0000C6A52EA01038046DDF83890104605D1AA
:101200006FF08604204604B0BDE8F087B8F5807F13
:1012100004D006EB0A03B3F5007FF1D84246FFF78E
:10122000BDFE04460028EDD12B4F3D68B542E7D303
:10123000AD1B554528BF5546B8F5807FC9F800500D
:101240001DD1DFF89880B5F5007F2F4628BF4FF4F9
:10125000007733463A4622492248CDF8008000F014
:1012600002FF20B10023C9F800300446CAE739461E
:101270004046FFF789FEED1B3E44E4D1C2E77B68A0
:10128000B3F5047F25D8DFF860A00346CDF800A0B1
:101290003A681349154800F0E6FE10B1C9F800405D
:1012A000E3E74FF40073DFF8348003940293CDF842
:1012B00004803B680C22009338465346084900F0EE
:1012C00036FC0028EAD1294608EB0600FFF75CFE51
:1012D00098E76FF0890495E7048A002004880020CD
:1012E000D4AA0020D4870020C4850020EC870020E9
:1012F00038B50546194610462A46049CFFF74EFEAF
:1013000028B9034B1A689B68C4E90022A36038BD62
:10131000048A002010B50446194610462246FFF7FD
:101320003DFE80B9084B9B68DB070AD40748084B91
:101330000849B4F5807F18BF1846BDE8104000F09A
:1013400082BE6FF0840010BD048A0020D487002084
:10135000EC870020D4AA0020F8B51D460368044697
:101360005B680E46174698470B4BC0F3410013F8D5
:10137000202063680699E0681D442368B1FBF2F2FF
:1013800000FB065039469B6998470028B4BF6FF0B0
:1013900091000020F8BD00BF0C2D00002DE9F74F93
:1013A0000C9C07469246002C55D0C26840681E1817
:1013B0003B6802FB01665B689847284BC0F341001D
:1013C00013F82080B6FBF8F908FB09F94E4540D028
:1013D0003B680DF1040B0122594648465B6998476A
:1013E000002804DA6FF0910003B0BDE8F08FA6EB9F
:1013F0000901621890458EBF2546A8EB06054D44AD
:101400002A46504659440DF066FA641B1FD04445E5
:101410000FD3B4FBF8F93B684A465B690AEB050158
:10142000A81998470028DDDB08FB09F3E41A0ED061
:101430001D443B6801225B6901A970199847002887
:10144000D0DB224601A90AEB05000DF044FA00208A
:10145000CAE70025DBE72046C6E700BF0C2D0000E9
:1014600008B5FFF765FA40B9FFF7DCFCFFF7E6FCCB
:1014700018B9BDE8084008F0AFB908BD134640F2FE
:1014800009522DE9F04F0026D0F8008089B0B8F855
:1014900028B0074693450D46059618D10A6883681B
:1014A0002AB96FF08004204609B0BDE8F08F496882
:1014B0000329F6D9002BF4D0C1680129F1D9D8F855
:1014C00004101888FFF7CEFA10600024EBE70DF146
:1014D00018094846D3E9002100F01CFBBBF5A06FBA
:1014E00013D12B1D03936B6802932B680193FB6848
:1014F0000093BB68D8F8042099E8030007F090FF38
:1015000004460028CFD06E60CDE740F201539B45E2
:101510000FD12B1D03936B6802932B680193FB681B
:101520000093BB68D8F8042099E8030007F0FCFC9E
:10153000E6E7ABF2025A1FFA8AF3012B19D82E689C
:10154000002EAED06B68032BABD9D8F808303146EB
:101550000120336005AAFFF7F7F90446002CA2D159
:10156000BAF1060F67D8DFE80AF032411E2B495462
:1015700061000120D8F8081005AAFFF747FAABF27E
:101580000753012B0446E9D82E68002E89D06B68DA
:10159000032B86D9D8F8083033600028E0D0BBF59B
:1015A000A16F92D07FE705982B1DD5E900120EF0B0
:1015B000AEFA044600283FF476AF00236B6072E772
:1015C0000598D7E902120DF079FF04466BE7D8F8C9
:1015D0000430059899E806000DF058FF04460028ED
:1015E0003FF473AF3046FFF7E3F95CE7D8F8043017
:1015F000059899E806000DF055FFEFE72B1D0193C4
:101600006B68059800932B68D7E902120DF074FF00
:10161000CFE7059805F10C03D5E902120DF086FF1E
:1016200004460028DED00023EB603CE705980DF06F
:101630001FFF0446D6E76FF0850434E72DE9F04F2D
:101640000027D0F8009089B0B9F828B00DF118083B
:1016500006460D46D2E900214046059700F05AFAA9
:10166000BBF5806F15D12B1D03936B6802932B681C
:101670000193F3680093B368D9F8042098E8030055
:101680000DF0B7FE044600B16F60204609B0BDE81A
:10169000F08F40F201439B450ED173690293336989
:1016A0000193F3680093B368D9F8042098E8030025
:1016B0000DF0B4FE0446E8E7ABF2024A1FFA8AF3E3
:1016C000012B1AD82F6817B96FF08004DDE76B681B
:1016D000032BF9D9D9F80830394602203B6005AA16
:1016E000FFF732F90446002CCFD1BAF1050F59D8D3
:1016F000DFE80AF01F2D353B49530220D9F80810C6
:1017000005AAFFF783F9ABF20543022B0446EAD89A
:101710002F68002FD8D06B68032BD5D9D9F80830A3
:101720003B600028E1D040F207439B45ADD1002447
:10173000ABE7D9F80430059898E806000DF0E8FD0D
:1017400004460028F3D03846FFF732F99DE7D9F870
:101750000430059898E806000DF0E6FDF0E70598DE
:10176000D6E902120DF0ECFDA4E7059805F10C0393
:10177000D5E902120DF0F6FD044608B90024E2E7AF
:101780000023EB6081E70598D6E902120DF017FE01
:10179000044600287FF479AFF0E705980DF05CFD72
:1017A0000446D0E76FF085046FE72DE9F04F4FF066
:1017B000000807688DB0B7F828B00DF12809064673
:1017C0000D46D2E900214846CDF8248000F0A2F968
:1017D000BBF5C06F1ED12B1D07936B6806932B685A
:1017E0000593F3680493B3680393736902933369B1
:1017F00001937B6A00937A6807F1140399E8030068
:101800000DF0AEFE044608B1C5F8048020460DB0C8
:10181000BDE8F08F40F201639B4517D12B1D079364
:101820006B6806932B680593F3680493B36803937E
:1018300073690293336901937B6A00937A6807F1B5
:10184000140399E803000DF0D7FEDBE7ABF2026A60
:101850001FFA8AF3012B20D8D5F80080B8F1000FC9
:1018600002D16FF08004D1E76B68032BF9D9BB6814
:1018700041460520C8F8003009AAFFF765F804467C
:10188000002CC3D1BAF1090F00F29080DFE80AF012
:101890002330525F66776C377D4D0520B96809AA01
:1018A000FFF7B4F86FF4C1635B44022B0446E7D83A
:1018B000D5F80080B8F1000FD3D06B68032BD0D9D6
:1018C000BB68C8F800300028DCD040F20B639B45B1
:1018D0009CD100249AE77B68099899E806000DF0EE
:1018E000E6FE04460028F4D04046FFF761F88DE795
:1018F0007B68099899E806000DF0E5FEF1E705F12F
:101900000C030293EB6809980193AB680093D5E947
:10191000041205F114030DF075FF044608B9002404
:10192000E2E70023EB606B6170E709980DF0B0FE11
:101930000446D9E709982B1DD5E900120EF02AF9C3
:10194000044600283FF462AF00236B605EE709980D
:10195000D6E902120DF0C3FE044657E70998D7E90D
:1019600003120DF0DFFEF7E72B1D01936B6809985A
:1019700000932B68D6E902120DF018FFE0E70998F2
:10198000D6E902120DF0EAFEE6E7F3680998019342
:10199000B3680093D5E9021205F10C030DF064FF62
:1019A00004460028BBD00023EB602FE76FF08504CE
:1019B0002CE76FF0850070476FF0850070472DE9C8
:1019C000F0418EB003ACD0F8008006460D461746B5
:1019D000D2E90021204600F09DF840F20322B8F839
:1019E0002830934203D0A3F50273012B0ED8B168BF
:1019F00011B96FF080043CE0F2681C2AF9D107A805
:101A00000CF069FF786807A900F087F8B8F828306B
:101A1000A3F50073092B72D8DFE803F01A71710582
:101A2000142F3D464B63D6E904122E68002EE0D0F9
:101A30006B68032BDDD9234607A807F035F9044668
:101A4000039B4CE094E8030007F0EAF8044610E03A
:101A500094E8030007AA2E680DF0FCF92B680446F1
:101A6000002BC6D06A681C2AC3D8304607A90CF0E0
:101A700032FF20460EB0BDE8F0812B1D0093D5E962
:101A8000002394E803000DF01FFA04460028F0D06C
:101A900000236B60EDE72B1D0093D5E9002394E84C
:101AA00003000DF03AFAF0E794E803000EF057F95E
:101AB000CCE7002205A811462E6800F02BF82B6811
:101AC000002B96D06B68032B93D994E8030005ABE9
:101AD00007AA0DF050FA04460028CAD1059B3360CE
:101AE000C7E72E68002E84D06B68032B81D921466E
:101AF00007A807F045FD04460028A1D0B9E76FF01C
:101B00008504B6E7D1E9000107F078BC0FB40020E6
:101B100004B07047C0E900217047886170476FF0DA
:101B2000850070476FF085007047FFF767BA2DE9B1
:101B3000F04F1546182204468DB00E460DEB0200FC
:101B400000219846169F9DF864A00CF0E9FE24B988
:101B50006FF086000DB0BDE8F08FBAF1000F28D10C
:101B600023680493238904F10C090593F6B12A46EE
:101B7000314648460CF0AFFE042205A909EB0500EA
:101B80000CF0A9FE281D042204A948440CF0A3FE71
:101B900004F1200BBAF1000F0DD00C21584603F0D0
:101BA00069F940B14CF2DA239842D1D06FF083004A
:101BB000D0E73B46D5E70C230B931423CDE906650C
:101BC0000993CDF828B0CDF8209004F12C03BAF198
:101BD000000F0ED01022CDE90132189B3A46009337
:101BE0004146179B06A804F068F90028DAD167601F
:101BF0000CE0189A41460292179A06A80192102208
:101C000000923A4604F06BF90028CBD10020A1E7FE
:101C100008B5036800209B689847002818BF6FF03C
:101C2000910008BD0020704770B504460E4600259F
:101C3000E368AB4201D8002070BD606806FB03007A
:101C400023682844DB69984710B9A3681D44EFE76F
:101C50006FF09100F0E72DE9F04F036895B005AA09
:101C600004460E46D3F80C8000F022FC00285FD119
:101C70000AA800F021FF014600285CD1DDE9057AC1
:101C80003C2205A8089D0CF04BFE3146204605AAD3
:101C900000F062FD00284BD1834681462368DB8A31
:101CA0005B4515D8002D35D12946204602AA00F003
:101CB0008FFC00283CD12946204602AA00F0AEFE47
:101CC000B0BB204600F093FE78B36FF083002FE0A6
:101CD000B3451CD05946204605AA00F0E9FB38BBA5
:101CE000059BBB420DD10AA800F0E6FE48B9069B51
:101CF000534506D9984528BF98465B1B0693089B19
:101D000099445946204605AA00F026FD80B90BF1FA
:101D1000010BC3E743462A4639462046CDE900A9D0
:101D200000F0C2F920B9002FCBD1204600F0ABFB68
:101D300015B0BDE8F08F6FF08B00F9E7F8B50D46F0
:101D40001746064678B371B36AB33C200B8ACA685B
:101D5000C98A012B00FB01F112D9032B10D0022BF1
:101D6000A88A23D1A2F114035B1A834234BF6FF017
:101D700086040024824201D26FF08604012302E02F
:101D80006FF08604023B0C20083100FB03118A42ED
:101D900009D344B91822214630460CF0C1FDC6E9EA
:101DA00000572046F8BD6FF08604FAE7824234BF40
:101DB0006FF086040024E5E737B5054600F0BBFD6B
:101DC000044658B94FF08071284601AA00F0E2FBA2
:101DD00038B928460199FFF73EFF0446204603B074
:101DE00030BD10F18C0F18BF0446F7E700F0C6BCF9
:101DF00030B591B0144601AB6A4600F098FB054639
:101E0000A8B9049B0C226360039B09A92360BDF859
:101E1000143004F12000A3600CF05DFD10220CA929
:101E200004F12C000CF057FD284611B030BD6FF0C6
:101E30008B05F9E72DE9F04399B00DF1240804462C
:101E40008946154600213C2240461F46209E0CF044
:101E500067FD4FF6FF73CDE9043325B96FF08600B7
:101E600019B0BDE8F083AB68B3F1807FF6D2236888
:101E700049465A8A6B682046013B1344524213403C
:101E80006B6004AA434600F052FB002840F09380A8
:101E9000AB6804999A0306D50C9AD5F804C062453C
:101EA0007BD10B900D9305914FF6FF73059A9A42E3
:101EB00040F08A8021686B68898A8B42CED806A957
:101EC000CDE9028105A90191A968204600910499F4
:101ED0008A1A18BF0122494600F0D9FB0028BFD159
:101EE000002F79D12046099906AA00F097FD002815
:101EF0005ED10C2205F1200111A80CF0ECFC10229F
:101F000005F12C0114A80CF0E6FC05994246204688
:101F100000F022FC014600284AD1DDE904539D422D
:101F200028BF1D4620462A4600F0EEFC00283FD17F
:101F30004FF6FF72049B93420FD0059A93420CD048
:101F40009A4238BF1A462046691C00F0DDFC78BB77
:101F5000DDE904539D4238BF1D4623682046DA8AD6
:101F6000691C00F0D1FC18BB099B002B65D1002F28
:101F700063D0204600F087FA00287FF471AF4FF657
:101F8000FF73049999423FF46BAF059B99423FF46C
:101F900067AF2046FFF75FFE62E70D9B424643F0C6
:101FA000807320460D9300F0D7FB00283FF47CAFF0
:101FB0006FF0830054E710F18C0F7FF451AFAB68E2
:101FC000DB037FF54DAF6FE72046099906AA00F0C5
:101FD000FFFA002884D0EBE723685B8A5A1E32425E
:101FE000E6D107F1FF3999445B4209EA03090B9BEB
:101FF0009E42DDD84A4631460C9800F051FD00283B
:10200000D6D1219B4246CDE900932046334606A90E
:1020100000F0C0F80028CBD10B9B3E449E420999AA
:10202000204688BF0B96069E00F028FA314606909F
:10203000099A204600F08DFB54E7204600F0D7FCBB
:10204000002896D0B4E713B5002301AA044600F097
:102050006EFA28B920460199FFF7FDFD02B010BDC8
:102060006FF08B00FAE770B592B015461C4602AAD5
:1020700003AB064600F05BFA98B92A46214605985C
:1020800000F00EFD58B9169B2246009330462B46B1
:1020900003A900F05EF8002818BF6FF0830012B0AB
:1020A00070BD6FF08B00FAE72DE9F04786B0164659
:1020B000DDE90E9703AA054688469A4600F088FA9D
:1020C000044698B9059B414633442846059300F0E1
:1020D000D5F906467FB101464A462846CDE900A714
:1020E000039B00F0E3FB28B16FF08304204606B0A9
:1020F000BDE8F0870127049A4A450BD2A9EB0203F9
:10210000CDE9002331462846039B00F0CFFB002891
:10211000EAD1012742462846039900F01AFB4146BE
:10212000284603AA039600F079FC044628B14246EB
:102130003146284600F00DFBD8E7B8F1000FD5D0A6
:10214000002FD3D06B683146DB6828689847044677
:10215000CCE72DE9FF410D461646096801AA044661
:102160001F46DDF8288000F033FA70B901994B1C46
:102170000BD062686B680A9755684246AC46206887
:10218000334404B0BDE8F04160476FF0830004B011
:10219000BDE8F0812DE9F3471546DDE90AA90F46B0
:1021A00098461168044600F069F96B687A689844AB
:1021B000A8EB0203CDE90023064601463B68204612
:1021C00000F074FB20BB6368CDF800A0D3F808A032
:1021D0004A46434631462068D047C8B9EB686A682A
:1021E000B9681A4423682046DB685B1A9B1ACDE95C
:1021F000002331463B6800F059FB48B92B683BB1DE
:10220000314663682068DB6802B0BDE8F0471847D4
:1022100002B0BDE8F08713B50C2404FB01F341685C
:1022200000948C68083341690068A04702B010BD73
:10223000436810B5416904461B690068984750B966
:1022400023681A8A022A06D96268A1681846BDE87E
:1022500010401269104710BD008A022814BF0338CD
:102260000020704708B5FFF7F7FF0C233C2200FB66
:10227000033302FB0130083008BD2DE9F04F002484
:1022800005460F46904626464FF00C0993B0D5F808
:1022900000A05046FFF7E0FF013086420ED3002633
:1022A0004FF03C09D5F800A0BAF816309E421DD375
:1022B000002088F8004013B0BDE8F08F09FB06F35A
:1022C0006A68CDF80090D2F804B039465046083319
:1022D00003AAD8470028EED103AB13F8012B013035
:1022E0000C2884EA0204F8D10136D0E76B68314645
:1022F0005046D3F804B0FFF7B5FF39460346CDF892
:102300000090504603AAD8470028D4D103AB13F855
:10231000012B01303C2884EA0204F8D10136C1E7E0
:1023200037B5837B01685A1CD2B28273097E04469A
:102330009142416904BF02338373012900F10D0208
:102340000DD8FFF79AFF40B90822636800929D6894
:1023500061690346A2182068A84703B030BD6FF03A
:102360008600FAE713B50C46114622790346012A86
:1023700009D1036862791B7E9A420CBF6FF083001B
:10238000002002B010BD022A04D11B68A2791B7E76
:102390009A4202D16FF08300F3E701290DD80DF1C5
:1023A0000702FFF76AFF0028EBD162799DF807303A
:1023B0009A4218BF6FF09100E3E76FF08600E0E704
:1023C0000822F0B5436887B000925C6800236A4435
:1023D000054619460068A0470246002834D000266A
:1023E0004FF0FF3408226B6800925F6801210023E0
:1023F000286804AAB847002839D10122284604A930
:10240000FFF7B0FF002832D1002E35D02B689DF8A1
:1024100016201B7E9DF80E10B3FA83F35B099342DE
:102420001BD1002A0CBF01230223994203D1914200
:102430002CBF0026012634462C61B4FA84F4002017
:1024400064096C6107B0F0BD284602A9FFF78AFF56
:1024500004460028C3D10126C4E78B42E7D1002BF4
:102460000CBF012302239342E1D00646E3E7002E8E
:10247000E2D16FF08300E5E70124DDE709B94069A7
:1024800070478068704710B50446FFF749FF70B980
:1024900063686169DB682068984740B9D4E9042320
:1024A0002046C4E90432BDE81040FFF7C1BE10BDAC
:1024B0002DE9F3410668054630461446FFF7D2FE83
:1024C0003C216A68009103465768304622462969D4
:1024D000B847064640B92868FFF7BEFE23680130BA
:1024E000834205D36FF09706304602B0BDE8F08115
:1024F00004F1140000F0E0FA0028F5D12D68E76837
:10250000AB8A9F42EED8A3689F42EBD3D4E9003850
:102510002BB92846E98AFFF7A5FE4045E2D83A469E
:102520004146E86800F0BCFA0028DDD0DAE72DE982
:10253000F0430746884691461C46002591B03B680B
:10254000DB8AAB4202D86FF08B061AE02946384688
:1025500001AAFFF7ADFFD0B90C22414606A810F042
:10256000D3F8064688B9C9F8005054B101AD0FCD73
:102570000FC40FCD0FC40FCD0FC495E8070084E83A
:102580000700304611B0BDE8F0830135D7E76FF0A2
:102590008306F6E7F0B505460E461746002491B0CF
:1025A0002B68DB8AA34202D86FF08B0009E021463A
:1025B000284601AAFFF77CFF38B9059B1E4202D0CE
:1025C0003C6011B0F0BD0134EAE76FF08300F8E73A
:1025D00073B506460C2000FB01F3716800904C684F
:1025E0003068316908331546A047044630B933686E
:1025F00029681A8A914204D36FF09704204602B0EA
:1026000070BDD868D5E9011200F04AFA04460028E6
:10261000F2D12B68012B03D83068C18AFFF722FE64
:102620006B688342EAD0E7E7F7B50C2606FB01F3B7
:10263000416800964F6808330169054600681446F2
:10264000B847034630B92B6821681A8A914204D3EF
:102650006FF09703184603B0F0BDD868D4E90112B3
:1026600000F01EFA03460028F2D12268012A0AD897
:102670002A681046FFF7F0FDD18A3C22514300FB47
:1026800006660831881962688242E3D0E0E72DE9E6
:10269000F04F06468B4691469846002791B0DDE9FB
:1026A0001C5A3068FFF7D8FD0130874202D36FF023
:1026B0008D0421E0524639463046FFF789FF044633
:1026C000002835D1DAF8082090452FD833685946CC
:1026D000DB682F609B1A6B600C22C5F80C8005F13B
:1026E00014000CF0F8F81A9BAC602B61DAF8083093
:1026F000A3EB0803CAF8083000253368DB8A9D4243
:1027000005D22946304601AAFFF7D2FE98B14FF60E
:10271000FF751B9B1D60CCB94FF6FF739D4208BF30
:102720006FF08D04204611B0BDE8F08F0137B8E797
:102730006FF08304E0E706A800F0BEF920B1B9F11C
:10274000000FE6D14FF001090135D6E76FF08D0497
:10275000E8E702B181607047F7B506680446304685
:102760001546FFF77FFD3C2162680091034697689C
:1027700030462A466169B84703B0F0BDF0B593B062
:102780000546FFF71DFE002861D16E696B68314672
:102790001B69286898470446002878D1B6FA86F164
:1027A0006B6828681B6949099847044600286ED160
:1027B0002E680127337EB3FA83F35B09AB73338A48
:1027C000C5E90407022B14BF02230123AB600223D7
:1027D0002B73F18A3046FFF745FDF36821461B1A3B
:1027E00001906A46284602930097FFF714FD0446BD
:1027F00000284CD106462B680190DB6802932B68B9
:102800001846FFF729FDB04223D8002C4BD12B6886
:102810001846FFF721FDA04228D83C22002103A83A
:102820000CF07EF800242B68DB8AA34232D82846BD
:10283000FFF776FD48BB6B686969DB6828689847D5
:10284000044620BBD5E90423C5E904321FE0002675
:102850009CE7198A6A68022914BF032100211846DF
:1028600031441269904701360443C8E71B8A6A461F
:10287000022B14BF0323002323440134214628469E
:102880000093FFF7C8FC0028C1D06FF083042046F6
:1028900013B0F0BD2146284603AAFFF75DFF0028CC
:1028A000F3D10134BFE76FF09104F0E72DE9F04F69
:1028B0000446884616469946C3B0DDE94CA51DB9C5
:1028C000284643B0BDE8F08FB5F5807F2F4628BF7E
:1028D0004FF4807763680097D3F804B049465346B5
:1028E000206802AAD8470028EBD163680097D3F884
:1028F00008B041463346206802AAD8470028E0D1F4
:102900003E44BA44ED1BDAE7F7B50768044638469B
:102910001646FFF7A7FC314605463846FFF7A2FCEE
:10292000401BCDE900502A46204623696169FFF724
:10293000BDFF03B0F0BD2DE9F041436805461B68BB
:10294000006886B09847044628B92846FFF738FD46
:1029500028B16FF08304204606B0BDE8F081082658
:102960006B6805F108070096D3F804803A462346C1
:1029700029692868C0470028EBD1394628462A69CA
:10298000FFF7F0FC0028E4D12846FFF751FC04468D
:102990000028DED12B7B012B24D1014603AA284637
:1029A000FFF742FE04460028D5D1059B2A68C3F1F3
:1029B000FF23D26803F57F03F8331344CDE90063A6
:1029C000324628462B696969FFF770FF04460028E4
:1029D000C1D16B7B2846AB7302232B73FFF753FDEA
:1029E0000446B8E7022B18BF6FF08304B3E710B5B5
:1029F00086B0002103AA0446FFF7EAFD60B920680B
:102A0000049A059BD118C36820465B1ACDE90023C0
:102A1000D4E90431FFF74AFF06B010BDF0B5044613
:102A20000D4687B009B94369136029462046FFF770
:102A3000F2FB0146D0B9D4E904768DB90C2200210D
:102A400020685543FFF70EFC1435401BCDE90050BC
:102A50003B462A4631462046FFF728FF07B0F0BD27
:102A6000204603AAFFF7B4FD014610B16FF08300C2
:102A7000F4E7204603AA0396FFF7CDFB0028F5D123
:102A8000012DDBD00C2314226B430C3B0193314608
:102A90003B4620460092FFF709FF0028CED0DDE735
:102AA000814206D8401A904234BF6FF08600002061
:102AB00070476FF08600704700F10C0310F8012B8F
:102AC00022B99842FAD16FF08B007047002070470E
:102AD0002DE9F04103680446A3F2F233A6B0032BBC
:102AE00000F2FD80DFE803F00D029195042200F171
:102AF000200353F8040D1146013A002852D00A462B
:102B000052E000230421169300F1200353F8040D32
:102B10000A46013908B1114601E00029F6D1042224
:102B200004F1300353F8045D1046013A0DB102463A
:102B300001E0002AF6D12369042B03D0012026B03E
:102B4000BDE8F081206A0428F8D80129F6D1012ACD
:102B5000F4D10021606806AA05F0AEFA0428EDD190
:102B6000A368002B16DB00220699A06803F0A2FAE6
:102B70000028E3D1216A069816AA03F050FA054608
:102B80000028DBD1236A16AA0021606805F09EFAAE
:102B90002846D4E7069806A903F0A1FA0028E2D057
:102BA0000220CCE7002AA4D1042104F1300353F819
:102BB000045D084601390DB1014601E00029F6D156
:102BC0002369042BBAD1012AB8D10029B6D1606893
:102BD00016AA05F071FA0428B0D1A368002B0DDB0A
:102BE00000221699A06803F065FA0028A6D116986D
:102BF00003F04DFA003818BF0120A0E7169816A977
:102C000003F06DFA0028EBD0CAE702F0B9FA002011
:102C100095E7002504260DF1180840222946404674
:102C200016AFCDE90255CDE904550BF079FE4022EF
:102C3000294638460BF074FE019504F1200353F841
:102C4000041D3246013E59B133461646042504F1AF
:102C5000300252F8040D2946013D30B10D4606E020
:102C6000002EECD14FF0FF33F0E7002DF1D12B43D4
:102C7000012B02D96FF0800061E704230021606816
:102C80000DEB030205F018FA0428F3D1022E1FD130
:102C90006669402E20D8334642460121606805F01F
:102CA0000BFA8642E6D1CDE9028602A995B1236AE4
:102CB000402BDFD8CDE9047304AE3246019803F00F
:102CC00031F90546002E3FF463AFDDE904235BE7ED
:102CD0000021EBE72E46F0E76FF089002FE76FF059
:102CE00085002CE708B503F098F9002814BF6FF0B1
:102CF0009200002008BD0000111C00009D13000080
:102D000059130000251C0000291C000001000000D0
:102D100002000000040000000A5B43727970746FC7
:102D20005D20556E737570706F7274656420726586
:102D30007175657374210A0054462D5053412D431B
:102D4000727970746F20312E312E30003C437265E1
:102D50006174696E6720616E20656D7074792049B9
:102D6000545320666C617368206C61796F75742EA2
:102D70000A003C4372656174696E6720616E20656C
:102D80006D70747920505320666C617368206C619B
:102D9000796F75742E0A000001680E4A034691424D
:102DA00015D1C169A2F11022A2F1EF1291420ED108
:102DB0008268012A0BD8C26812B101698A4206D022
:102DC000586928B19B691B1A584258417047012025
:102DD000704700BF55AA00FF0E4B70B59E68B6B194
:102DE0003046FFF7D9FF044618B9F3687BB9356957
:102DF0000DB9204670BD2846FFF7CEFF28B9EB6815
:102E0000B34204D12E462D69F2E70446F1E70124CE
:102E1000EFE700BFE0AA0020394A2DE9F04114682D
:102E2000D4B19468C4B1002868D0002966D001FBF1
:102E300000F5B5FBF0F0884260D1281D5ED8A907E7
:102E40000DD025F003010431D46803E060688842A6
:102E500007D2A469002CF9D12046BDE8F0812946AB
:102E6000F2E7D4F80880B8F1000F02D001200BF08F
:102E70002FFD401A232804F12006D4E9057C1BD835
:102E80000123A360AFB1C7F818C0A36903B15F61A4
:102E90000023C4E905331369DB0703D5FFF79CFF63
:102EA0000028E3D12A460021304634460BF038FD95
:102EB000D2E7C2F80CC0E8E701F1200E04EB0E03E4
:102EC0002038C3E901082069DFF83880DC60186128
:102ED00044F80E80DFF830E0C3F81CE000B1C360B6
:102EE000C3E9057C47B1BB61986900B1436101202A
:102EF0002361C4E90110CBE7D360F5E70024ABE719
:102F0000E0AA002055AA00FF669911EEF8B5054623
:102F100000285DD0394F3B68002B59D0BA68002A91
:102F200056D0834203D87A681344984202D30120D2
:102F30000BF0CEFCA0F120042046FFF72DFF002867
:102F4000F5D155F8183C012BF1D155F8146C45F822
:102F5000180CB6B1B368002B3BD155F81C3C03F1FB
:102F6000200273681344736055F8103C336103B159
:102F7000DE602046202200210BF0D2FC234634469E
:102F80001E462069002830D08368002B2DD163684D
:102F900042682033134463600369D4E90521236147
:102FA000CAB9F1B9426981696261A161DAB194611A
:102FB000A26902B1546103B1DC60202200210BF050
:102FC000AFFC3B699B0703D5FFF706FF0028AED196
:102FD000F8BD0646D5E79161A1690029E2D04A61B2
:102FE000E0E7F960F8E7FC60E2E7002EE9D1FB6872
:102FF000A36103B15C61FC60E3E700BFE0AA0020CD
:1030000038B50D4614220021044612480BF088FC06
:103010001149124805F05AF9232D1AD914F0030367
:103020001FBF043DED18C3F10403E4182A46002134
:1030300020460BF075FC074B094AC3E900459C602C
:103040002260A2F11022203DA2F1EF126560E26140
:10305000DC6038BDE0AA00200D2F0000192E000012
:1030600055AA00FF00000000000000000000000062
:103070000000000000000000000000000000000050
:1030800008B54FF4CC7200210D480BF049FC4FF409
:1030900080730B498B6108A3D3E90023C1E90423A2
:1030A0000123A1F8903181F82830BDE8084000F0F4
:1030B000DFBA00BFAFF3008000BD40DFE143E14E67
:1030C000C810002000000000002230B54C4C89B030
:1030D00002AD04904FF4C87301200021CDE90045F2
:1030E000CDE906220394ADF814200BF0DFF810B1FF
:1030F00001238DF81430049B0022009302204FF42A
:10310000C873002101950BF0D1F810B101238DF89F
:1031100015304FF4807238A1D1E90001039BC3E957
:1031200004019A61049BC3E904019A61002006A985
:1031300000F035FE002858D12946012000F02FFE6E
:10314000002852D1022007A900F029FE00284CD106
:10315000079A029B9A429DF8143018BF0790012BE2
:1031600003D0002003A900F06BFD9DF81530012B62
:1031700003D0012003A900F063FD039B049993F899
:103180002830012B1CBF01238DF8143091F8283012
:10319000012B1CBF01238DF8153040F20113BDF83F
:1031A00014209A4225D09DF81430012B07D14FF4FA
:1031B000C8721348A4F890310BF08DFB07E09DF81E
:1031C0001530022B13D04FF48073A4F8903194F88B
:1031D0009101002101300BF0B9F810B110F18C0F02
:1031E00003D1074800F0BAFB002009B030BD01232D
:1031F000DDE76FF08300F8E700BD40DFE143E14E1B
:10320000C81000206FF47A72F0B5474B8DB018608B
:10321000036804461344042B08D8DFE803F00327AF
:103220004867770003698668082B02D06FF0800535
:1032300059E08569042DF9D10021406808AA04F0FD
:103240003BFF0828F2D12B460221606806AA04F051
:1032500033FF0428EAD1069B30460193636900934B
:10326000DDE9082300F09AFC05463CE00369082BE1
:10327000DCD14569042DD9D10021406808AA04F0A9
:103280001BFF0828D2D12B460121606805AA04F053
:1032900013FF0428CAD106AB0293236A0193059B4E
:1032A0000093A068DDE9082300F08FFCDCE70369E8
:1032B000082BBBD1076A0C2FB8D10021406806AAA1
:1032C00004F0FAFE0828B1D1DDE9062308AE009625
:1032D000A06800F08EFC054628B901463B46324600
:1032E000606804F0F3FE28460DB0F0BD0369082BBA
:1032F0009CD10021406808AA04F0DEFE082895D180
:10330000DDE90823A06800F084FCADE7056A042D20
:103310008CD100F091FC2B4608900021606808AA2F
:1033200004F0D4FE0025DEE76019002038B5074B15
:1033300002461D680C460B466868012104F0BCFE7D
:10334000844214BF6FF08000002038BD6019002057
:103350000B46044910B40C6802460021606810BC9A
:1033600004F0B4BE6019002008B5074907480FF003
:1033700023FA00F021F830B100F060FC18B9BDE884
:10338000084000F019B808BD00025005E83D0000F3
:1033900038B5084D2B4600F0FFF9044618B9BDE8D2
:1033A000384000F08DBA002128680AF0CFFF20468F
:1033B00038BD00BF6419002008B50448FFF784FE3B
:1033C000024B034A383B536008BD00BFB8080020D9
:1033D000641900202DE9F3471F460023DFF864A09D
:1033E0000193534681468846164600F02BFA044660
:1033F00008BB154DDAF80000294601AAC5E9049872
:10340000AE6100F063FC044678B9AE6ABE4216D3E2
:103410000A9BF61B9E4228BF1E4605F13800314626
:103420003844FFF795FF0B9B1E6040F648020021D1
:1034300005480BF075FA204602B0BDE8F0876FF042
:103440008604F2E764190020800800202DE9F04F7F
:10345000002585B0DDF838A00746BAF5006F0E46A6
:1034600090469B46039571D8DFF8E8904B4600F0F4
:10347000E9F9044600283AD1374DD9F80000294629
:1034800003AAC5E90476C5F8188000F01FFC0446BD
:1034900038BB2B6BDB074ED4C5E90BAB4FF0010BF0
:1034A0005B46D9F8005051462C480193FFF73EFF88
:1034B000044698B9019B2749184600F041F9044693
:1034C00060B9254BD9F800001946C3F828A000F0D0
:1034D00034FC0446F0B10DB1C9F80050BBF1000F47
:1034E0001FD0424638463146FFF752FF19E010F12F
:1034F0008C0F1CD1184C40F64802294620460BF090
:103500000FFAC4E90BAB0223AB46C4E90476C4F856
:103510001880C8E7424638463146FFF739FF04466F
:1035200060B140F6480200210B480BF0F9F9204643
:1035300005B0BDE8F08F6FF08404D2E7002DF0D025
:10354000214628460AF002FF0446EAE76FF08604A7
:10355000EDE700BF6419002080080020B8080020B3
:103560002DE9F3471E460023DFF84CA00193534694
:1035700081468846174600F065F90446B8B90F4DF4
:10358000DAF80000294601AAC5E90498AF6100F005
:103590009DFB044628B9AB6A7360EB6A33602B6B02
:1035A000B36040F64802002104480BF0B9F9204608
:1035B00002B0BDE8F08700BF641900208008002039
:1035C00000232DE9F7431B4F01933B4680460E46EF
:1035D000914600F037F9044620BB174D386829465C
:1035E00001AAC5E90486C5F8189000F06FFB0446EF
:1035F00090B92B6BDB0719D44A464046314600F0A0
:1036000037F9044640B900F05BF9044620B9214679
:1036100038680AF09BFE044640F64802002106483E
:103620000BF07EF9204603B0BDE8F0836FF0840410
:10363000F2E700BF6419002080080020F0B50025E3
:103640000A4CD4E910768E4208BF874205D1A66C99
:10365000964202D100201D60F0BD01350B2D04F112
:103660002004EED16FF08B00F6E700BFC8100020F9
:103670000020F0B5DFB0029000F09DFB02AD0246E5
:10368000C0BB294600F08BFB024698BB2B4E029F25
:10369000304600F06BF9024660BB03AC4FF4B472E5
:1036A00006F128012046C4F868710BF014F94FF4B4
:1036B000B6722146304600F009FA0246D0B996F8B3
:1036C00091714FF4C872009033460021781C0AF0C3
:1036D000CFFD024670B996F8903120602146012056
:1036E000029D86F8913186F8907100F058FB68B120
:1036F0006FF0830210465FB0F0BD012000F05BFB6D
:1037000002460028F6D123680133236023689D42D6
:10371000F3D82146022000F042FB0028E8D12368BC
:103720009D4201D80022E5E7022000F044FB02465A
:103730000028DFD1236801332360F0E7C8100020A0
:1037400070B50D4610B300231C46124AD2E910167C
:10375000314308BF234604F1010408BF00F1FF30E4
:103760000B2C0ED020320028F0D1DC1C204600218A
:103770000AF0ECFD10B110F18C0F01D100202C608B
:1037800070BD0028F1D06FF08D00F9E76FF0860072
:10379000F6E700BFC81000202DE9F0471E460023C1
:1037A0008146884617468AB0244D02AC01930FCD5E
:1037B0000FC495E80F0084E80F003A46484641469A
:1037C00001ABFFF73BFF1E4D824668B9019C2022EA
:1037D00005EB44143034214602A80BF07CF820227B
:1037E000514620460BF09CF833687168DC1E05EBEF
:1037F000431343E9089805EB44131C463034102268
:1038000020469F640BF067F8FFF732FF064688B149
:10381000DDE90632134308D0019B202205EB431556
:1038200002A905F130000BF056F8202200212046B5
:103830000BF076F830460AB0BDE8F087C83D0000CE
:10384000C810002037B51D4601ABFFF7F7FE044650
:1038500048B9019B0549DA1C2A606868102201EB0F
:1038600043110BF038F8204603B030BDF8100020AB
:10387000002330B58BB0019301ABFFF7DFFE0446A8
:10388000C8B9019B0D4D202205EB4315294602A81E
:103890000BF021F82146202228460BF041F8FFF7D3
:1038A000E7FE044620B12022284602A90BF013F8B7
:1038B00020460BB030BD6FF08B04F9E7F810002004
:1038C000034B002193F8910101300AF03FBD00BF86
:1038D000C810002030B589B004460D4618220021DA
:1038E00002A80BF01DF800234FF440710093194B10
:1038F0006846CDE903134FF41053ADF8043080232C
:103900004FF00821ADF806300AF03EFC00BB40F253
:1039100001116846104A0AF0F1FBA0B90C232A46AF
:1039200040F2012168460AF053FC60B9224669461C
:1039300001A80AF075FC30B968460AF003FC38B1FA
:1039400020680AF021FB68460AF0FCFB6FF0830058
:1039500009B030BD0002500502C0FF7F00F11C011C
:103960000C2201480AF0B7BF6C1900201FB50822CD
:10397000184904460DEB02000AF0ADFF0422164977
:103980000DEB02000AF0A7FF029B039A013342F1FC
:103990000002CDE90232134314D008220D480DEB8A
:1039A00002010AF098FF04220B480DEB02010AF015
:1039B00092FF0C22074904F11C000AF08CFF002042
:1039C00004B010BD019B01330193002BE5D16FF0D2
:1039D0008300F5E76C190020741900202DE9F043ED
:1039E000994600238DB00E4609A904469046159FBE
:1039F000179D089300F050F909A908A8FFF76AFF7E
:103A000018BB169BCDE90068CDE90473149B1049DF
:103A1000CDE9029308980C23069504F11C020AF0E4
:103A2000D1FA28B108980AF0AFFA6FF083000CE0E1
:103A30002968102210392960204639440AF04BFFCA
:103A400008980AF0A1FA0028EFD10DB0BDE8F08384
:103A5000000250052DE9F04104461D4600238CB0BC
:103A6000129E0F4609A99046089300F015F92146C9
:103A70001022A8190AF02FFF09A908A8FFF72AFFAA
:103A8000C0B9159B10360693149BCDE902560593D9
:103A9000139BCDE9007804930B490C23089804F19B
:103AA0001C020AF0DDFA0346089833B10AF06CFAFA
:103AB0006FF094000CB0BDE8F0810AF065FA0028C0
:103AC00018BF6FF08300F5E700025005002370B5C2
:103AD0008EB00D460BA9044616460A9300F0DCF89A
:103AE0000BA90AA8FFF7F6FEF0B909AB069310235D
:103AF000CDE90200CDE90443CDE900560C230B4982
:103B00000A9804F11C020AF05DFA03460A9813B9F8
:103B1000099B102B04D00AF037FA6FF0830003E002
:103B20000AF032FA0028F8D10EB070BD000250053C
:103B3000002370B58EB00D460BA9044616460A93B5
:103B400000F0AAF80BA90AA8FFF7C4FEC0B909AB98
:103B5000CDE9050310230490CDE9024304F11C02D2
:103B60000C23CDE900560B490A980AF079FA03466E
:103B7000DDE90920134305D00AF006FA6FF094003E
:103B80000EB070BD0AF000FA002818BF6FF0830075
:103B9000F6E700BF00025005FFF7E6BB30B4194658
:103BA00004461046DDE9022350EA010506D0072B42
:103BB00008D80292224630BCFFF748BC6FF086005E
:103BC00030BC70476FF08500FAE770B419460446C0
:103BD0001046DDE9033250EA0106059D05D0CDE926
:103BE0000325224670BCFFF7F5BB6FF0860070BC62
:103BF0007047194610B40446104650EA0102019B72
:103C000003D0224610BCFFF7ABBC6FF0860010BC9F
:103C10007047194652EA010310B50446104608D011
:103C20002246FFF7CDFC10F1950F08BF6FF083001F
:103C300010BD6FF08600FBE700207047FFF720BA49
:103C4000F0B551F82070DDB0CB6801AD4FF4B4721F
:103C500006460C46284607F128015B930AF03BFE16
:103C60004FF4B67229463846FFF762FF80B12369E8
:103C700083B14FF4B672294638465B93FFF758FF7D
:103C800000280CBF03230123344423725DB0F0BD30
:103C90000223F9E70123F7E71FB5D0E904230C4617
:103CA000CDE90223042283690DEB02012046019332
:103CB0000AF011FE0822201D0DEB02010AF00BFE96
:103CC00004B010BD0F30000901307047F0B5154643
:103CD000002289B005AB019301F11C030F4600934C
:103CE000114640F61C0306460AF0E0FA00BB059CAC
:103CF0000B2C1FD90C3CB4F5016F1BD8204606963F
:103D0000FFF7E0FF07AB286003934FF4026307F16E
:103D10002806CDE90163042233463846009406A9FB
:103D2000FFF798FE10B9079B9C4201D06FF083000B
:103D300009B0F0BD6FF09700FAE72DE9F04186B0C9
:103D40000490064608460D468F6AFFF70FFE0446AC
:103D5000B0B905AA03924FF4026207F1100805F109
:103D60002803CDE9013228460422CDF8008004A9B9
:103D7000FFF734FE10B9059B984505D06FF083041A
:103D8000204606B0BDE8F08121460094304605F19A
:103D90001C0307F11C020AF06BFA0446F0E70A461E
:103DA00008B511B96FF0830008BD04210AF0FCFAD0
:103DB0000028F9D0F6E708B50AF0DEFA002814BFAB
:103DC0006FF08300002008BD00000000000000002C
:103DD00000000000000000000000000000000000E3
:103DE0000000000000000000285B50535D20456E7D
:103DF0006372797074696F6E20616C673A203078F5
:103E000025780A000000000000000000000000000B
:103E100000000000000000000000000000000000A2
:103E2000F82F010000AB002035000000C02F01007A
:103E3000801900200E000000C02F01008008002023
:103E400000000000D4AB0020CC040000B819002012
:103E50005224000080080020400400006008002078
:103E60000800000003689A070CD50368DB070DD52E
:103E70000922074BC3F80C250F22C3F804250122A1
:103E80001A60FEE7034B0360EF3B0360704700BF1F
:103E900000801050F000FA5008B50123314A324832
:103EA000C2F80038A2F55722D2F800242F4AD2F8DF
:103EB0004023292A04BF2E4AC2F80C34FFF7D2FF50
:103EC0000830FFF7CFFF0830FFF7CCFF0830FFF7CF
:103ED000C9FF00F5F470FFF7C5FF264AD2F88C3011
:103EE00043F44063C2F88C300022D30003F57F0313
:103EF00003F54043D3F8001401310AD0D3F800147D
:103F000039B1D3F800140132D3F80434402A0B60DD
:103F1000EBD1194BD3F80026D2071DD4174B154906
:103F2000D3F8182522F00302C3F81825D3F8182572
:103F3000C3F81825D1F88C2042F44062C1F88C20D7
:103F400000220F49C1F8D426C3F8A0250D4AD2F8A3
:103F50000034012BFBD008BD6FF00102C3F800262E
:103F6000DCE700BF0000125000F50E5000C0FF005B
:103F70000030055000ED00E000E0105000E004507B
:103F800000600D50009004507C2201490AF0A3BC4F
:103F9000A0B1002038B51D46344B354C5B68C3F3E7
:103FA00008032360EFF3038363655306C4E901202C
:103FB000E16038D502F00C020C2A08BF0846014621
:103FC000206120222B480AF086FC25B120222946B8
:103FD00029480AF080FC254B9A6AA265D96AE165F6
:103FE000986B206602F400406066586BA06602F091
:103FF0008000E0669A62D962D3F8E4201F48226705
:10400000D3F8E810616702F04001A167C3F8E4202B
:1040100000F044F82168CB1E042B1DD8DFE803F024
:104020000F1416181A00EFF39483990704D5130799
:1040300002D5EFF38980C2E7EFF38880BFE710482D
:10404000BDE8384000F02AB80E48F9E70E48F7E717
:104050000E48F5E70E48F3E70F2992BF0D480E48CA
:104060001039BDE8384000F019B800BF00ED00E09D
:10407000A0B10020B4B10020D4B10020927B000098
:10408000A17B0000AD7B0000BF7B0000CA7B00006D
:10409000D77B0000E57B0000017C00000FB41FB55A
:1040A000012106AB53F8042B05480091002103932E
:1040B00004F026F805B05DF804EB04B0704700BFCB
:1040C000555700000A4B37B51B786BB1094C636933
:1040D000984748B9E56AA847C307FCD4236A019307
:1040E00003B0BDE830401847002003B030BD00BF2A
:1040F00074BE00206C7D000010B50B4C0020A3683E
:10410000984780B902202369984760B94FF4E1319C
:104110000120A46AA04730B901211520A04710B999
:104120000122024B1A7010BD6C7D000074BE00208D
:10413000044B82B0186883B26FF30F00184302B0CB
:10414000704700BFB47D0000014BD86D704700BFC1
:1041500004AB0020014B186E704700BF04AB002079
:1041600008B5024800F0EAFB002008BD04AB0020BF
:10417000F0B5C2B2012A04460B4685B00AD0A2F1BE
:104180001501012900F2D680002B00F0BE8000202E
:1041900005B0F0BD6A4D01AE95E8070086E807005E
:1041A0004DF6C02293427DD028D8B3F5615F7CD014
:1041B00011D8B3F5965F7AD008D8B3F5966F78D05A
:1041C000B3F5166F78D06FF00700E1E7B3F5165F2F
:1041D000F9D15C4B33E047F6122293426FD007D8F7
:1041E000B3F5964F6ED0B3F5E14FECD1564B26E0C8
:1041F000B3F5164FE7D14FF41D0320E0534A934225
:1042000062D011D8B3F5E13F61D007D8B3F5614F63
:1042100060D0B3F5963FD6D14D4B10E0B3F5613F7A
:10422000D1D14FF06C730AE0B3F5612F55D0494AF4
:10423000934255D0B3F5E12FC5D14FF0E86314F4A4
:10424000E06F56D114F4404103D0B1F5804F53D103
:10425000102104F44052B2F5805F44D0B2F5005F03
:1042600044D0002A4BD13C48B0F8940014F44034B8
:1042700003D0B4F5403F45D10124374F8DF80440B9
:104280008DF805208DF80610ADF8080096E80700B7
:1042900085E80700384607F16401C7F88C3001F063
:1042A000BFFB74E74FF46503C9E72C4BC7E72C4B02
:1042B000C5E74FF49E23C2E74FF41D23BFE74FF439
:1042C0000003BCE7274BBAE74FF08063B7E74FF036
:1042D000EB73B4E74FF46B03B1E74FF07063AEE7F5
:1042E0004FF08053ABE700200E22BFE74FF4807001
:1042F000FAE76FF008004BE76FF00A0048E76FF04D
:10430000090045E76FF00B0042E74FF0FF33162A34
:104310000BBF114A104910460F480ABF02F1640151
:1043200041F8643F936601F07BFB10F1100F04D05D
:10433000C0172DE76FF003002AE76FF0010027E7B1
:1043400094AB00200050270000C0750090D00300FF
:1043500000903A0140420F0004AB002000F03A0008
:1043600000B0130000A04E0073B506461B480C4673
:1043700001F092FB194D18B94FF0FF3002B070BD3B
:1043800022463146284601F05EFC10F1100F02D1A2
:104390006FF00100F2E70028EEDB0321284600F071
:1043A0002BFB10F1100FF3D00028E5DB0023019365
:1043B000284601A901F0F0FC10F1100FF8D0783078
:1043C000DAD0019B9C42D7D801220448114601F063
:1043D000E1FC0028D0DB00202C66CFE704AB0020F6
:1043E000F0B51B4E054691B030460C4601F054FB2B
:1043F00018B94FF0FF3011B0F0BD05F06043B3F1D4
:10440000005F20D1002322462946304601F04AFBB6
:1044100010F1100F19D00028EBDBF46511E0A71B99
:10442000402F28BF4027A9193A4668460AF053FA98
:1044300039466846FFF7D4FF0028DCD14036B44245
:10444000EDD80020D7E70026F9E76FF00100D2E7AA
:1044500004AB002010B50A4C04F16400D4E9151235
:1044600001F090F901460022204600F0E1F9002811
:10447000AABF00206FF00100C4E9170010BD00BF03
:1044800004AB00207FB500250C46C0F8105116463D
:10449000D0F81021D0F8002222F02002C0F800222B
:1044A0000F4AC0F8082301F0BEF9A560256104F1A8
:1044B0004C03D3E8EF1F6FF31731C3E8E21F002A64
:1044C000F7D11022294668460AF02AFA04236846E2
:1044D0008DF800300196D4E90013984704B070BD00
:1044E00020021800044B054A1B68B3FBF2F3584343
:1044F000034B43F00103184700AB002040420F007C
:10450000D07D00007F2800F01F034FEA50110BD828
:10451000084A52F8212002EB8303D3F88010064AA0
:104520000A40C3F8802070470022203352F823301D
:10453000FFDE00BFB87D0000F0F0FCFF7F284FEAEF
:10454000501208D8054B00F01F0053F82220012319
:1045500083405360704700235B60FFDEB87D00003E
:104560007F2800F01F034FEA50110DD8094A52F876
:10457000212002EB8302D2F88010074B0B4043F05E
:104580000303C2F8803070470022203352F82330F2
:10459000FFDE00BFB87D0000F0F0FCFF2DE9F74F13
:1045A00091F8398005460C46B8F1000F11D1036D22
:1045B000096843F000730365481C05D00846FFF7FF
:1045C000BDFF0846FFF7CCFF6068411C01D0FFF734
:1045D00099FF94F82C70E668012F14D1B8F1000F00
:1045E00011D12B6D721C43F000632B6502D0304655
:1045F000FFF788FFA1684B1C05D00846FFF79EFF18
:104600000846FFF7ADFF94F838E0BEF1000F03D184
:104610002B6D43F080732B65D4E90083B4F830C070
:10462000B4F832A00093A36894F82D9094F82E105B
:10463000A08EE28EDFF8A0B001934CEA0A0C2B6842
:1046400040EA0C00A56A41EA09015B4542EA000222
:1046500041EA070108BFED080A43C3F82455C3F82F
:104660006C25BEF1000F0BD1009A012FC3F8048610
:10467000C3F80C2602BF019AC3F81026C3F80866D7
:10468000002194F83B20C3F84C11D3F84C01C3F837
:104690006811D3F86801C3F81411D3F81401C3F8F2
:1046A0002411D3F82401C3F830110C48D3F8301189
:1046B0005201C3F30F31C3F30833D2B2C41884F8E4
:1046C0000023012201F01F015B098A4040F82320EA
:1046D00003B0BDE8F08F00BF00D0045000E100E05F
:1046E0007F2800F01F034FEA50110DD8094A52F8F5
:1046F000212002EB8302D2F88010074B0B4043F0DD
:104700000203C2F8803070470022203352F8233071
:10471000FFDE00BFB87D0000F0F0FCFFF8B50546F5
:104720002B6D046803F48223B3F5805FD4F8000294
:1047300005D009B100232B626FF07600F8BDD4F8E4
:104740000463C4F8086309B9830645D4D4F8003279
:1047500023F02003C4F800324FF4A11305F15007F1
:10476000D7E8EF1F1943C7E8E01F0028F8D112B9B6
:10477000AB68002B57D12D4BC4F808330123E362FB
:10478000D4F82431002BFBD00023C4F85031D4F8E6
:104790005021C4F84C31D4F84C21C4F82431D4F859
:1047A00024212A6D12F4004219D12A62204601F018
:1047B0003AF80023EB606B61D7E8EF3F6FF31733F4
:1047C000C7E8E23F002AF7D126F4C01626F408769F
:1047D0000020C4F80463B1E74FF48033BEE7C4F8A7
:1047E0005031D4F85021EA69C4F804270522C4F8EE
:1047F0000827C4F84C31D4F84C310123E361D4F8D4
:104800004C31002BFBD00022C4F84C21D4F84C31A1
:10481000D4F850310BB1D4F80C372B62C4F85021C6
:10482000D4F85031C2E70123E362D1E72002180037
:104830002DE9F34104460F4694F84C10904604309D
:10484000002966D150220AF06BF83B6963607B69EE
:10485000E363BB6903B1013B23643B6A2568042B16
:1048600081BFFB69E36100232362D5F8003243F482
:104870008023C5F80032012384F84C30D5F850214C
:10488000C4F80880EAB939462046FFF787FE0822B7
:10489000002325688DF80730C5F800250DF10702C3
:1048A000C5F83C27C5F8403701230A262B656B6500
:1048B000D5F8303183BB0120FFF714FE013EF7D15C
:1048C00020E008226426C5F80025EB62D5F82431E3
:1048D000EBB9D5F81431D3B90A20FFF703FE013E36
:1048E000F4D10023C5F85031D5F85021C5F84C312A
:1048F000D5F84C21C5F82431D5F82421C5F8003568
:10490000002EC0D16FF08B0002B0BDE8F08101260F
:10491000E7E76FF07700F7E70020C5F8680180450A
:10492000D5F86831044B08BF03462268C5F8000576
:10493000C2F80433E8E700BF200218002DE9F04177
:10494000012503682A4A2B4EC3F80823C3F3043118
:10495000C3F3434205FA01F12032044646F822101F
:10496000BFF34F8FBFF36F8FD3F80022294622F495
:104970008022C3F800222A46FFF7D0FE29462046AF
:1049800001F01DF9256D2368E901D3F80406D3F879
:104990000C86D3F81066D3F8087609D54FF0FF32AD
:1049A000C3F80426C3F80C26C3F81026C3F808265B
:1049B000AA0115D5431C01D0FFF792FEB8F1FF3FC5
:1049C00002D04046FFF78CFE290109D57A1C02D09F
:1049D0003846FFF785FE731C02D03046FFF780FE95
:1049E000002384F84C302365A360BDE8F08100BF4C
:1049F0002012180400E100E0F8B50646044656F817
:104A0000505B071DD6E8EF3F43F48052C6E8E02F25
:104A10000028F7D1DA0466D44B0702D5E369002BEE
:104A200064D0344BC5F808330823C5F8003500239B
:104A3000C5F84C31D5F84C21C5F85031D5F8502186
:104A4000C5F824310A03D5F824318B0303F48043DD
:104A500002F400524903134301F400410B43D6E82A
:104A6000EF2F1A43C6E8E12F0029F8D1E368B3B964
:104A7000A3686BB9236DD80433D5D6E8EF3F6FF345
:104A80001733C6E8E23F002AF7D16FF00B00F8BDFC
:104A90000321384600F0A2FEE368002BEAD0D5F8E7
:104AA0000433D90610D5A36873B1236D1A030BD54F
:104AB000D6E8EF3F23F40023C6E8E23F002AF7D10F
:104AC0000621384600F08AFE236DDB0409D5D5F8AF
:104AD00050310BB90123AB62A36813B1054BC5F884
:104AE00004330020D3E76FF00F00D0E74FF0FF3022
:104AF000CDE700BF2002180072B6024A13680133E6
:104B0000136070471CB20020034A1368013B136016
:104B100003B962B6704700BF1CB20020004870475E
:104B2000047E00001FB50D4A01AB10685168128960
:104B300003C300211A80012301A88DF804308DF8E9
:104B40000810ADF8061000F0BBF818B110F1780F9E
:104B500008BF002005B05DF804FB00BF1C7E00000C
:104B6000F8B58507144618D10D4DA84215D82D1A51
:104B7000B5EB820F11D30B4ED6F80075D6F8005561
:104B800007F00107C6F8007500F072F8204605F43A
:104B90007C553D43C6F80055F8BD6FF00400FBE7B7
:104BA00000D01F0000E0045038B50346094D084608
:104BB000AB4214460AD8ED1AB5EB840F4FEA8202D5
:104BC00004D3194609F087FE204638BD6FF0040073
:104BD000FBE700BF00D01F0070B504784378418820
:104BE0000679C288057A44EA0324184B41EAC67163
:104BF00042EA0542C3F80045C3F80C15C3F8102576
:104C0000D3F80424D207FBD5114A1268E2B100217F
:104C1000427AC3F80C11D3F80C01C3F80411D3F88D
:104C20000401C3F80811D3F80801C3F80011D3F840
:104C3000001152010749D2B281F84E234FF480424D
:104C40008A600F22C3F8042370BD00BF00E0045047
:104C500054BE002000E100E0044B40EA0120C3F80C
:104C60000005D3F80024D207FBD5704700E00450BC
:104C70002DE9F04104460D461646DFF8408001203C
:104C8000D8F80075D8F8001507F00107C1F3052121
:104C9000FFF7E2FF04EB86062B1FA64204D138463D
:104CA000BDE8F041FFF7D8BF53F8042FD8F804044B
:104CB000C007FBD544F8042BEFE700BF00E0045029
:104CC00038B5064D2C7934B92960FFF785FF0123EB
:104CD00020462B7138BD6FF07700FBE754BE0020F3
:104CE000003A18BF0122003918BF0121036889006A
:104CF000074841EA4201186359605A6842F00102CC
:104D00005A60BFF34F8FBFF36F8F0020704700BF13
:104D100004AAFF000123084AC2F8043302F58022E6
:104D2000C2F8043302F58022C2F8043302F580226F
:104D3000C2F80433704700BF000004500D4BD3F895
:104D4000000103F58023D3F8003183B9003818BF80
:104D500001208000084BD3F80031002B074B18BF0F
:104D60000420D3F80031002B18BF04207047042022
:104D7000F0E700BF0000045000000C50000010508D
:104D80000122024BC3F80423704700BF00100450F7
:104D9000034BD3F80001003818BF0120C000704752
:104DA000001004500022034BC3F80021D3F8003157
:104DB000704700BF0010045000230A4AC2F80031B7
:104DC000D2F80021084AC2F80031D2F80021074A7F
:104DD000C2F80031D2F80021054AC2F80031D2F8F9
:104DE00000317047000004500000085000000C50D3
:104DF000000010500022104630B50749074C51F80A
:104E0000043BD3F800511DB1D3F8040423401843E8
:104E10000132042AF3D130BD287E00000000FFFFDC
:104E200010B5FFF78BFF0D4C4207206002D5FFF74E
:104E3000E1FF6060FFF7ACFF2368184303072060C1
:104E400006D5074BD3F800246260D3F80434A3607E
:104E50000448BDE81040FFF721B900BF5CBE002048
:104E600000100450CC7C00000C22014909F033BD35
:104E70005CBE002038B5044600B30B291ED9114D85
:104E80002868431C02D143F6DA3038BD78B10822D5
:104E90000D49204609F01FFD04220A4904F10800CB
:104EA00009F019FD2B68002001332B60EDE7082283
:104EB000054905F0A5FC0028E9D0E4E74CF2DA202A
:104EC000E3E700BF68BE00207ABE00202DE9F04F66
:104ED00017461C22ADF2044D044689460DEB020034
:104EE00000211D46DDF828649DF8348409F018FD82
:104EF0004FF46A72002116A809F012FD10230693E0
:104F0000002C78D0236813B96268002A73D1A26894
:104F100012B9E268002A6ED1226912B96269002AC8
:104F200069D1DDF82C24002A65D0DDF830240F2A61
:104F300061D9B8F1000F01D0BE425CD34FF0200B15
:104F40000DF1380ACDF808B0CDF804A0626802204F
:104F500000920022114609F05BFA00284ED14FF46E
:104F60004072284B07A9CDE90923274A00930792ED
:104F70005B46524616A8B8F1000F2ED007F0C4FACF
:104F800038BBD4E9041216A807F0FAFA08BBD4E932
:104F9000021216A807F020FBD8B905AC2B463A46FA
:104FA0004946CDE9006416A807F036FB88B92268A7
:104FB000A918B21AB8F1000F12D006AB0293DDF8AF
:104FC000303416A80193DDF82C340093234607F003
:104FD0004BFB0DF2044DBDE8F08F07F0B3FACFE7BD
:104FE000DDF8303416A80193DDF82C340093234605
:104FF00007F06AFBEDE74CF2DA20EAE743F6DA3035
:10500000E7E700BF000510050420000170B502F0BD
:105010008BFC044650BB09F05DFA40B91648FFF717
:105020003DF809F0A1FA18BB1448FFF737F8144A05
:105030001448D368002523F008031B041B0C43F01D
:10504000BF6343F40033D360FFF728F800210E4814
:10505000FFF724F8012606FA05F39B0703D029463B
:105060000A48FFF71BF80135202DF4D1204670BD0A
:1050700045F22354FAE700BFE27C0000157D0000F2
:1050800000ED00E0207D0000487D00005D7D000017
:10509000024B1860024B00201960704770BE002060
:1050A0006CBE00201FB5274C426923685A62826992
:1050B0009A62C269DA62026A1A63426A5A63826A4F
:1050C0009A63C26ADA63026B1A64426B5A60826B3B
:1050D0009A60C26BDA60026C1A61426C5A61826C2F
:1050E0009A61C26CDA61026D1A62826D5A65C26D94
:1050F0009A65026FDA65026E1A66826E5A66426FB0
:105100009A66EFF388825A64EFF389829A64426860
:10511000DA64EFF394821A65026801A81A67FFF750
:10512000A3FE2368019ADA6601221A70064B1C68F6
:105130006408640020462146224623460DF094FB75
:1051400004B010BD70BE00206CBE002000B5A1B040
:1051500001A8FEF719FF029B63B15B060AD4019B0D
:1051600023F00203052B05D1044B1B6813B101A8E2
:10517000FFF798FF21B05DF804FB00BF6CBE002074
:10518000BFF34F8F0549064BCA6802F4E062134330
:10519000CB60BFF34F8F00BFFDE700BF00ED00E025
:1051A0000400FA05254B264A4FF47A611A60012261
:1051B000244B2548C3F80424D0F82436C3F308024E
:1051C000C3F309434B4382F480722049883201FBC8
:1051D00002334FF4FA215B00B3FBF1F201FB12330F
:1051E0001B49B3F57A3F28BF0132C1F80429D0F832
:1051F00020364FF47A60C3F30802C3F309434343F4
:1052000042F21C5082F4807202F2172200FB023339
:105210004FF47A701B0AB3FBF0F200FB123300204C
:10522000B3F5FA7F4FF0010328BF0132C1F81C2704
:10523000C1F80009C1F80036704700BF00AB00207C
:105240000020A107002008E000C0FF00F82A00802D
:105250000000125070B50446074E4518A54201D80B
:10526000002070BD2046F369984710B904F58054BA
:10527000F4E743F65C20F4E7D87D00002DE9F84F11
:10528000DFF85CA00746DAF80430884615469847F0
:105290000024144BC0F3410013F8209004F1800364
:1052A000AB4294BF80262E1BB6FBF9FBDAF8143014
:1052B0005A460D493819984700280EDB5A46DAF845
:1052C0001830094908EB04009847002805DB3444EE
:1052D000A542E3D80020BDE8F88F43F65C20FAE74A
:1052E000D87D0000387E000082BE00202DE9F34703
:1052F000DFF870900546D9F8043088461446984780
:10530000194BC0F3410013F820A0B5FBFAF70AFBD4
:10531000175727BBA4B9384602B0BDE8F0870AFB8F
:1053200006F6A41BF7D0012201A9A819C847002836
:1053300012DB224601A908EB060009F0CCFAEAE7E5
:10534000B4FBFAF605F50825324641462846D9F859
:105350001490C8470028E2DA43F65C27DBE74AF2FC
:10536000C537D8E7D87D0000387E00002DE9F04F22
:1053700086187542C5F30B05354485B0B5F5805FD9
:105380000446019104D943F65C2005B0BDE8F08FD6
:10539000DFF86C81D8F8043098470422594BC0F3E9
:1053A000410053F82070D8F8143057480093FBB2EE
:1053B000B2FBF3F203A9009B9847039A531C0232F5
:1053C00008BF01230393002D34D024F47F6B2BF00E
:1053D0000F0BA5EB0B010BF50820FFF73BFF002897
:1053E000D1D1B5F5BE7FAA4628BF4FF4BE7ADA45C3
:1053F00029D8B5F5BE7F5ED3FBB20427B7FBF3F720
:10540000424D3A4629464048009B9847B6F5BE7F34
:105410005CD8042203A93D4809F05DFA384B3A46AE
:105420003A493B489B69984708B18742ABD100F0A5
:1054300060FEAAE74FF480514FF40820FFF70AFFFF
:105440000028C2D09FE70BF180039A452CBF4FF094
:105450008009AAEB0B095FFA87F8B9FBF8F82B492A
:105460004246009B0BF5092098475E4516D909EB8B
:105470000B039C4212D2A3455A4638BF2246111B49
:10548000A2EB0B009E4294BFC2EB0602C2EB0302EA
:10549000019B19441D4B184409F01DFA184B424654
:1054A0009B691A490BF50820984710B180457FF495
:1054B0006AAFCB449BE74FF4BE724FF408214FF420
:1054C0000920FFF7DBFE002896D05CE7B4F5C07F2B
:1054D0009FD2B4F5BE7F224638BF4FF4BE72019B07
:1054E000111BA2F5BE700B44B6F5C07F94BFC2EB92
:1054F0000602C2F5C0721946284409F0ECF988E7A3
:10550000D87D0000387E00007C91080082BE00201B
:105510007C8108002DE9F0414D4F86B00020BB682A
:10552000984700286BD104226946FFF7DFFE044646
:1055300000283FD104224FF4BE700DEB0201FFF7AB
:10554000D5FE0446002835D1424E009BB34203D11C
:10555000019B013B03335ED97B6898473E4BC0F308
:10556000410053F8205004224FF4805004A9FFF763
:10557000BDFE0446F0B9042241F27C1005A9FFF7F4
:10558000B5FE0446B0B9049B4FF48051B3424FF4CA
:10559000082013D1059B013B03330FD8FFF75AFEB8
:1055A00068BB4FF480524FF408214FF40920FFF7F5
:1055B00065FE20BB204606B0BDE8F081FFF74AFE3D
:1055C0000146E0B94FF08008EDB28022234809F08F
:1055D000A7F9B8FBF5F84FF40825BF6928464246FD
:1055E0001E498035B847B5F5092FF7D100F081FD88
:1055F00028B9042202A90296FFF7B8FE10B143F6BB
:105600005C24D7E70123042203A94FF4BE7003935F
:10561000FFF7ACFECDE7042241F27C1005A9FFF7AD
:1056200065FE04460028C5D1059B5A1E033206D8E4
:10563000019A934203D30233BCD1012ABAD100F0BC
:1056400058FD43F65C23002818BF1C46B2E700BF94
:10565000D87D00001281DEC0387E000082BE0020AE
:105660001E2809D801230A4A8340134207D113F0A8
:10567000980F08D11D2808D04CF25A3070472023CB
:1056800000200B6070470423FAE74023F8E700BFCF
:10569000650F004038B543680C2B01D0022038BD9F
:1056A0004B68042BFAD14FF0FF3304680D68216872
:1056B0002B600029F2D0A268002AEFD00623012037
:1056C00001F073FF0028E9D161680B4B99420AD9B8
:1056D000A26805338818984208D8206809F0FBF8BA
:1056E00000202860DBE7054B9942D7D9A268044B1C
:1056F00088189842D2D8F0E7030508E0FFD4FF00ED
:1057000000DAFF00436810B50C2B14D14B68042B52
:1057100011D10B6801210268196010680B49884299
:1057200009D1022194681960032C04D1516811F049
:10573000020002D01C60022007E0054CD4F81825B6
:1057400061F30102C4F81825186010BD18E5045073
:1057500000E0045008461146FEF7B4BC0120704733
:105760006FF003007047002070476FF00300704730
:1057700000207047022814BF6FF00300002070471C
:10578000FEF72EBE70B540F2FF1501EB820291428A
:1057900000D170BD51F8044BC4F30803240EAB4292
:1057A00008BF4FF0FF33032CF1D8DFE804F0020408
:1057B00006080360EBE74360E9E78360E7E7C3605F
:1057C000E5E70346D0F8300130B931B9D3F86801C4
:1057D000003818BF012070470120704730B50446DB
:1057E0000D4685B010220021684609F099F8D4E9E9
:1057F000001368468DF80050984705B030BD7FB55E
:1058000004460E46154600211022684609F088F825
:10581000012368468DF80030CDE90165D4E9001315
:10582000984704B070BD10B50446FFF765F9D4F889
:10583000303133B1D4F8043313F4805308BFC4F8C3
:105840000035BDE81040FFF75FB9D0F8303133B113
:10585000CB6CC3F30032DB0458BFC0F8002570479F
:105860002DE9F74F866804460D463EB113F0020657
:1058700004D0C36B002B00F082800126276D17F047
:1058800010077CD14FF00109BA46AB180093009B7A
:105890009D4276D005F0604BE26BD4F8008082B96F
:1058A000BBF1005F7AD10192FFF726F9216D4046E6
:1058B00001F00101FFF785FF019A20B9FFF724F9F4
:1058C000EAE70122EFE7A16CAB460029BCBFD8F89C
:1058D0004417A1643AB1D4E90F1228788854D4E966
:1058E0000F1201EB020BBBF1000F03D0C8F83CB75D
:1058F000C8F84097C8F868A1D8F86821C8F830A15E
:10590000D8F83021C8F86CA1D8F86C210822C8F862
:1059100000251EB14FF48052C8F80423C8F85090F7
:10592000FFF7F2F8EEB9216D01F001014046FFF7F3
:1059300048FF0346D8F84407D8F83C272BBB9345CB
:10594000F4D009B9C8F854904FF0000BFFF7D4F821
:105950004046211DFFF779FFFFF7D6F8BBF1000F96
:105960000DD1A368C3B9236D1B0715D55034D4E8F6
:10597000EF3F23F00803C4E8E23F002AF7D14FF0DD
:10598000FF37384603B0BDE8F08F9345D9D10028E2
:10599000D7D14FF0FF3BD9E7013578E76FF0150716
:1059A000EFE770B5CE6C0D4606F001010446FFF737
:1059B00008FF38B94FF4805346F00406EE64C4F88B
:1059C000043370BDD5E90A365AB1296CEA6B761AF0
:1059D000964228BF164619443246A86B08F07BFF52
:1059E000AB6B4FF0FF326A641BB1C4F83C37C4F8AC
:1059F00040670023C4F86831D4F86821C4F8303116
:105A0000D4F83021C4F86C31D4F86C310823C4F8D0
:105A100000354FF48053C4F8043301232365D0E7E5
:105A200037B590F84C3004463BB3036B4BBB026870
:105A3000C2F8003583680BB10B6943602046FEF75E
:105A4000ADFD0822002324688DF80730C4F8002536
:105A50000DF10702C4F83C27C4F8403701230A259A
:105A600023656365D4F8303173B90120FEF73AFD40
:105A7000013DF7D16FF08B0001E06FF0760003B0CD
:105A800030BD6FF00F00FAE70020C4F86801D4F8C9
:105A90006831C4F80005F2E790F84C00003818BFF0
:105AA000012070472DE9F04704460F461E469046F8
:105AB000002A64D085685DB953B9066B002E61D1A8
:105AC0000263FFF7CDFE054626632846BDE8F08752
:105AD000B10707D03346424639462046BDE8F04775
:105AE000FFF7BEBE07F06043B3F1005F19D0E36B70
:105AF000002B4AD0720748D40125D4F80090FEF755
